:10000000E802002071400000BF1F00000B29000023
:1000100000000000000000000000000000000000E0
:100020000000000000000000000000002B3D000068
:1000300000000000000000006F4000000B410000C5
:1000400019290000232900002D290000372900006C
:1000500041290000B92900004B2900005529000062
:100060005F29000069290000732900007D29000034
:1000700087290000912900009B290000A529000084
:10008000AF290000C3290000CD290000D7290000B6
:10009000E1290000EB290000F5290000FF290000FC
:1000A000092A0000132A00001D2A0000272A000048
:1000B000312A00003B2A0000452A00004F2A000098
:1000C0000022C0B2802252005043524A8018026976
:1000D000CA401000C007C00FC0B270470200002025
:1000E000D2B280235B005A434A4BD21801238B4083
:1000F000D9435161C0B2704701000020C9B28022CB
:1001000052005143434A89184A6901239A434A617C
:100110004A6904239A434A614A6920239A434A61FF
:100120004A693D4B13404B614A693C4B13404B615C
:100130004A693B4B13404B614A693A4B13404B6150
:10014000C0B2704701000020C9B280225200514362
:10015000304A8918CA688023DB001343CB60C0B2E1
:10016000704700B502000020D2B280235B005A43E2
:10017000284BD218C9B2002908D002290CD0052971
:1001800010D00E2914D00F2918D01DE0D16880237B
:10019000DB000B43D36018E0516A80235B000B4304
:1001A000536212E0516A80239B000B4353620CE0C0
:1001B000D16880235B030B43D36006E0D1688023C2
:1001C0001B030B43D36000E00120C0B200BD80B52B
:1001D000C0B2002803D0022811D008D317E0B348DA
:1001E0000068002802D0B148006880470FE0B0489E
:1001F0000068002802D0AE480068804707E0AD489C
:100200000068002802D0AB4800688047FFE701BDC6
:1002100000000000000C0040FFBFFFFFFF7FFFFF5A
:10022000FFFEFFFFFFF7FFFF10B502000020D2B274
:10023000002A04D0022A00D1A9E054D3FBE00A78B6
:100240009D4B1B689D4C1C401203C0239B01134017
:100250002343994A13604A78974B1B687E4C1C4095
:10026000520280239B001A402243934B1A608A78E3
:10027000914B1B68A64C1C40120280235B001A4065
:1002800022438D4B1A60CA788B4B1B687024A343A2
:100290001201702414401C43874A14600A79864B6B
:1002A0001B680824A343D200082422401A43824B2F
:1002B0001A604A79804B1B680424A34392000424EB
:1002C00022401A437C4B1A608A797B4B1B680224BC
:1002D000A3435200022422401A43774B1A608968D4
:1002E000724A1160A8E00A788A4B1B68734C1C4064
:1002F0001203C0239B0113402343864A13604A78AC
:10030000844B1B68544C1C40520280239B001A40B3
:100310002243804B1A608A787E4B1B687C4C1C40C1
:10032000120280235B001A4022437A4B1A60CA787B
:10033000784B1B687024A3431201702414401C43A3
:10034000744A14600A79734B1B680824A343D200D3
:10035000082422401A436F4B1A604A796D4B1B6880
:100360000424A3439200042422401A43694B1A60D8
:100370008A79684B1B680224A3435200022422405E
:100380001A43644B1A60C968494A116054E00A78FC
:10039000614B1B68494C1C401203C0239B01134056
:1003A00023435D4A13604A785B4B1B682A4C1C4010
:1003B000520280239B001A402243574B1A608A78CE
:1003C000554B1B68524C1C40120280235B001A40A4
:1003D0002243514B1A60CA784F4B1B687024A343C9
:1003E0001201702414401C434B4A14600A794A4B92
:1003F0001B680824A343D200082422401A43464B1A
:100400001A604A79444B1B680424A34392000424D5
:1004100022401A43404B1A608A793F4B1B680224E2
:10042000A3435200022422401A433B4B1A6009693D
:10043000204A116000E00120C0B210BD0100002080
:10044000C9B2802252005143344A8918CA68012334
:100450001343CB60C0B27047FFFDFFFF00B5020041
:100460000020D2B2002A03D0022A13D009D31AE006
:100470002B4A1268120C120489B20A4328490A60F6
:1004800012E0284A1268120C120489B20A43254964
:100490000A6009E0244A1268120C120489B20A4365
:1004A00021490A6000E00120C0B200BDC800002060
:1004B000CC000020D00000200C0C0040FFCFFFFF3C
:1004C00000B502000020D2B2002A03D0022A13D0C5
:1004D00009D31AE0114A1268120C120489B20A43B5
:1004E0000E490A6012E0114A1268120C120489B215
:1004F0000A430E490A6009E00D4A1268120C120400
:1005000089B20A430A490A6000E00120C0B200BD76
:10051000FFFEFFFF0C0D00400C0E0040000C0040E1
:10052000040C0040040D0040040E0040000D00408B
:10053000000E004010B502000020D2B2002A04D004
:10054000022A00D1C1E060D31FE10A78BD4B1B68CD
:10055000BD4C1C401203C0239B0113402343B94AE6
:1005600013608A78B74B1B687024A3431201702470
:1005700014401C43B34A1460CA78B24B1B6804246D
:10058000A3439200042422401A43AE4B1A600A7916
:10059000AC4B1B680224A3435200022422401A439E
:1005A000A84B1A604A79A74B1B680824A343D200C2
:1005B000082422401A43A34B1A608A79A14B1B6876
:1005C000B34C1C4092038023DB011A4022439D4B15
:1005D0001A60CA799B4B1B68AE4C1C4052048023A6
:1005E0009B021A402243974B1A604A78954B1B682E
:1005F000A94C1C40D20680231B051A402243914B74
:100600001A608968A54A1160C0E00A78A44B1B688B
:100610008D4C1C401203C0239B0113402343A04A6E
:1006200013608A789E4B1B687024A34312017024C8
:1006300014401C439A4A1460CA78994B1B680424DE
:10064000A3439200042422401A43954B1A600A796E
:10065000934B1B680224A3435200022422401A43F6
:100660008F4B1A604A798E4B1B680824A343D20033
:10067000082422401A438A4B1A608A79884B1B68E7
:10068000834C1C4092038023DB011A402243844B9D
:100690001A60CA79824B1B687E4C1C40520480232E
:1006A0009B021A4022437E4B1A604A787C4B1B689F
:1006B000794C1C40D20680231B051A402243784BFC
:1006C0001A60C968774A116060E00A78764B1B6847
:1006D0005D4C1C401203C0239B0113402343724A0C
:1006E00013608A78704B1B687024A3431201702436
:1006F00014401C436C4A1460CA786B4B1B6804247A
:10070000A3439200042422401A43674B1A600A79DB
:10071000654B1B680224A3435200022422401A4363
:10072000614B1A604A79604B1B680824A343D200CE
:10073000082422401A435C4B1A608A795A4B1B6882
:10074000534C1C4092038023DB011A402243564B3A
:100750001A60CA79544B1B684E4C1C4052048023CB
:100760009B021A402243504B1A604A784E4B1B683A
:10077000494C1C40D20680231B051A4022434A4B99
:100780001A600969784A116000E00120C0B210BD0A
:1007900030B403000020DBB2802464006343734C58
:1007A0001B191C6B724D2540C9B2090380246401DA
:1007B000214029431963196B6E4C0C40D2B2D1020F
:1007C00080221201114021431963C0B230BC70472E
:1007D00001000020C9B2802252005143634A8918A7
:1007E000CA6801231343CB60C0B2704710B4030042
:1007F0000020DBB28024640063435C4C1B191C683E
:10080000240C240489B20C431C60D9688024A143C1
:10081000D2B2D201802422400A43DA60C0B210BCB6
:10082000704702000020D2B280235B005A434F4B36
:10083000D21853681B0C1B0489B20B435360C0B21F
:10084000704700000C0C0040FFCFFFFF10B5030005
:100850000020DBB2802464006343444C1B190C006D
:10086000E4B2002C06D1D96B090C090492B21143F1
:10087000D9630AE0C9B2012906D1196C090C09042F
:1008800092B21143196400E00120C0B210BD000013
:10089000FFBFFFFFFFFFFDFFFFFFFFF7C8000020C6
:1008A0000C0D0040CC0000200C0E004030B40200C3
:1008B0000020D2B280235B005A432C4BD218536ADB
:1008C0001024A34353624B78D4690725AC435B07DC
:1008D0005B0F2343D3618B78D4690825AC43DB00DD
:1008E00008252B402343D361CB78546A4025AC4381
:1008F0009B0140252B40234353620B79D4681E4D46
:1009000025405B05C024E4031C402C43D460536A9B
:100910002024A34353628B79D4697025AC431B0117
:1009200070251D402543D561CB79D4698025AC4322
:10093000DB0180252B402343D3610B7A546A802549
:10094000AC43DB0180252B4023435362497A536A31
:100950000A4C1C400903C0239B010B4023435362F4
:10096000C0B230BC70470000D0000020000C004036
:10097000FFEFFFFFFFF7FFFFFFFF9FFFFFCFFFFF2F
:1009800000216A490968C1400800C007C00FC0B211
:1009900070470100002001228A40D143644A11605F
:1009A000C0B2704700206249096801229143604A41
:1009B00011605F490968042291435D4A11605C49F6
:1009C0000968082291435A4A11605949096810225E
:1009D0009143574A11605649096820229143544A6D
:1009E00011605349096840229143514A11605049AE
:1009F0000968802291434E4A11604D490968494A6D
:100A00000A404B490A604A490968474A0A4048492E
:100A10000A6047490968474A0A4045490A6044490B
:100A20000968454A0A4042490A60414909684A4AF8
:100A30000A403F490A603E490968484A0A403C4921
:100A40000A603B490968464A0A4039490A60384900
:100A50000968444A0A4036490A60C0B2704700B586
:100A600001000020C9B2002910D0022916D00329A4
:100A700024D0042932D0052918D0062926D00729E8
:100A800034D00E293AD00F2940D047E036490968C2
:100A90008022D2000A4334490A6040E033490968A1
:100AA000802252000A4331490A6038E02F49096820
:100AB000802292000A432D490A6030E02C490968DF
:100AC000802252000A432A490A6028E0284909681E
:100AD000802292000A4326490A6020E025490968DD
:100AE000802252000A4323490A6018E0214909681C
:100AF000802292000A431F490A6010E01A490968DF
:100B0000802252030A4318490A6008E0164909681E
:100B1000802212030A4314490A6000E00120C0B297
:100B200000BD0000FFBFFFFFFF7FFFFF1058004028
:100B300014580040FFFEFFFFFFFDFFFF80B5C0B26D
:100B4000002807D10C480068002802D00A48006835
:100B50008047FFE701BD0000FFFBFFFFFFF7FFFF3E
:100B6000FFEFFFFFFFDFFFFF0C580040245800405D
:100B7000285800402C580040D800002010B4010034
:100B800000200A78824B1B68824C1C401203C02351
:100B90009B01134023437E4A13608A787C4B1B6879
:100BA0007024A3431201702414401C43784A14603B
:100BB000CA78774B1B680424A34392000424224084
:100BC0001A43734B1A600A79714B1B680224A343C2
:100BD0005200022422401A436D4B1A604A796C4B32
:100BE0001B680824A343D200082422401A43684B00
:100BF0001A608A79664B1B68274C1C40920380233D
:100C0000DB011A402243624B1A60CA79604B1B68B1
:100C1000624C1C40520480239B021A4022435C4BCE
:100C20001A604A785A4B1B685D4C1C40D2068023E0
:100C30001B051A402243564B1A608968594A1160B5
:100C4000C0B210BC7047000010B402000020564B28
:100C50001B68564C1C40D2B2120380235B011A4021
:100C60002243514B1A60504A1268184B1340C9B2C4
:100C7000C90280221201114019434B4A1160C0B2CF
:100C800010BC704700204249096801220A434049CC
:100C90000A60C0B270470000FFBFFFFF02000020E3
:100CA000434B1B681B0C1B0492B21343404A136056
:100CB000374A126880239A43C9B2C9018023194078
:100CC0001143334A1160C0B270470000FFF7FFFFC5
:100CD00001000020374A1268120C120489B20A433C
:100CE00034490A60C0B2704700B50200002013000A
:100CF000DBB2002B08D1284A1268120C120489B208
:100D00000A4325490A6040E01300DBB2012B08D1F9
:100D1000294A1268120C120489B20A4326490A6051
:100D200033E01300DBB2022B08D1244A1268120C04
:100D3000120489B20A4321490A6026E01300DBB29B
:100D4000032B08D11E4A1268120C120489B20A43FE
:100D50001B490A6019E01300DBB2042B08D1194AC1
:100D60001268120C120489B20A4316490A600CE098
:100D7000D2B2052A08D1144A1268120C120489B2A0
:100D80000A4311490A6000E00120C0B200BD000022
:100D90000C580040FFCFFFFF3C580040FFFFFDFF15
:100DA000FFFFFFF7D800002030580040FFEFFFFFA3
:100DB000005800400458004040580040445800404B
:100DC000485800404C5800405058004010B50200B0
:100DD0000020D2B2002A04D0022A00D1D2E066D389
:100DE0003BE1A14A126810239A439F4B1A604A784C
:100DF0009E4B1B680724A3435207520F1A439B4B79
:100E00001A608A78994B1B680824A343D2000824EF
:100E100022401A43954B1A60CA78934B1B684024B2
:100E2000A3439201402422401A438F4B1A600A794F
:100E30008B4B1B688E4C1C405205C023DB031340B8
:100E40002343874A1360884A126820239A43864BBB
:100E50001A608A79854B1B687024A34312017024A1
:100E600014401C43814A1460CA79804B1B6880245B
:100E7000A343D201802422401A437C4B1A600A7A91
:100E8000794B1B688024A343D201802422401A435B
:100E9000754B1A60497A744A1268764B13400903FD
:100EA000C02292010A401A436F490A60D6E0724A92
:100EB000126810239A43704B1A604A786B4B1B6878
:100EC000684C1C401202E023DB0013402343674AB6
:100ED00013608A78654B1B68684C1C40D2028023E3
:100EE0001B011A402243614B1A60CA78624B1B688F
:100EF0004024A3439201402422401A435E4B1A60CF
:100F00000A79574B1B685A4C1C405205C023DB031F
:100F100013402343524A1360574A126820239A43CE
:100F2000554B1A608A79514B1B68554C1C40120373
:100F3000E023DB01134023434C4A1360CA794B4B37
:100F40001B68504C1C40D20380231B021A402243D2
:100F5000464B1A600A7A484B1B688024A343D2018F
:100F6000802422401A43444B1A60497A424A12684C
:100F7000404B13400903C02292010A401A433E49E4
:100F80000A606BE0424A126810239A43404B1A6091
:100F90004A78364B1B683C4C1C401204E023DB02B1
:100FA00013402343314A13608A78304B1B68374C17
:100FB0001C40D20480231B031A4022432B4B1A608F
:100FC000CA78334B1B684024A3439201402422403B
:100FD0001A432F4B1A600A79214B1B68244C1C4082
:100FE0005205C023DB03134023431D4A1360284AE4
:100FF000126820239A43264B1A608A791B4B1B6880
:10100000244C1C401205E023DB0313402343174A02
:101010001360CA79154B1B681F4C1C40D2058023F6
:101020001B041A402243114B1A600A7A184B1B68A2
:101030008024A343D201802422401A43144B1A6017
:10104000497A134A12680B4B13400903C0229201DC
:101050000A401A430E490A6000E00120C0B210BDE8
:101060000C580040FFF8FFFF245800401C58004077
:10107000FFFF9FFFFFCFFFFF28580040FFF7FFFF54
:10108000FF8FFFFFFF7FFFFFFFFFF8FFFFFFF7FF6F
:101090002C580040FFFF8FFFFFFF7FFF97489849C4
:1010A0000860984896490860704770B505000C00C4
:1010B0000026FFF7F3FFE4B2002C01D0012000E08E
:1010C0000020EDB2002D06D0022D40D01BD3042D00
:1010D0007BD054D391E08C490968012291430200EE
:1010E000D2B21300DB07DB0F0B4387490B60010013
:1010F000C9B2002906D0854909680A001205D20F35
:10110000002AF4D07AE08249096801220A43804922
:101110000A607F49096802220A437D490A607A49C8
:101120000968022291430200D2B2520002231A40FF
:101130000A4375490A600100C9B2002906D0754901
:1011400009680A005206D20F002AF4D056E06E4910
:101150000968042291430200D2B2920004231A408B
:101160000A4369490A600100C9B2002906D06A49E8
:1011700009680A00D204D20F002AF4D03EE0674981
:1011800009688022D2010A4364490A6063490968F8
:10119000802212020A4361490A605B4909680822F9
:1011A00091430200D2B2D20008231A400A435649A2
:1011B0000A600100C9B2002906D0594909680A002D
:1011C0005206D20F002AF4D018E04F4909681022C5
:1011D00091430200D2B2120110231A400A434A4935
:1011E0000A600100C9B2002906D0AC4909680A00AA
:1011F0005203D20F002AF4D000E004263000C0B21F
:1012000070BD01000020434A126803239A43C9B20B
:101210008907890F11433F4A1160C0B2704710B46B
:10122000020000203E4B1B680C24A343D2B2920064
:101230000C2414401C433A4A1460394A12680323B0
:101240009A43C9B28907890F1143354A1160C0B268
:1012500010BC7047010000202E4A126830239A43C8
:10126000C9B2090130230B4013432A490B60C0B2B5
:10127000704701000020284A1268894B1340C9B208
:101280008902C02212010A401A4323490A60C0B2EF
:10129000704701000020224A126830239A43C9B2E5
:1012A000090130230B4013431D490B60C0B2704746
:1012B00001000020794A12687A4B1340C9B2C90371
:1012C000E02292020A401A4374490A60C0B2704791
:1012D00038B505000024FFF7E1FE0B480068E02167
:1012E0008843EDB26901E0220A40024306480260E9
:1012F00000F05CFA2000C0B232BD00005A5A000073
:1013000008200040A5A50000002000400C2000405F
:10131000CC0D024010200040142000408C0D0240F3
:101320001820004000B589B0002004A85E491422AE
:1013300000F06CFA03A85D490A68026068460C2157
:1013400000F0A6FA5A480088694608815948008882
:101350006946C8809C480088694688809B48008808
:10136000694648809A48008869460880994800681C
:1013700040094007400FC0B2002806D0022830D0F4
:101380002DD304283ED03AD374E09348006840053A
:10139000400D69460989884201D108981EE08E48AF
:1013A00000684005400D6946C988884201D1079808
:1013B00014E0894800684005400D694689888842E4
:1013C00001D106980AE0844800684005400D69464E
:1013D0004988884201D1059800E004984BE07F4895
:1013E00049E0684600887E4909688905890D884278
:1013F00002D103A8408801E0684680893BE0802054
:10140000000238E0254800688007800F032829D1B2
:1014100068460089704909684905490D884201D12B
:10142000089820E06846C0886B4909684905490D5D
:10143000884201D1079816E06846808866490968A5
:101440004905490D884201D106980CE0684640885C
:10145000614909684905490D884201D1059802E0B2
:10146000049800E05D480D49096849090907090F1A
:10147000484300E0002057490968090A4907490F15
:10148000C84009B000BD80B50020FFF74BFF5149AF
:101490000968C90A8907890FC84002BD3C2000407D
:1014A000FFF3FFFFFF7FFCFF2C41000054410000D1
:1014B000000C1000020C100038B504000025207844
:1014C000002806D002280CD004D3042815D00CD351
:1014D00017E017E00320FFF794FE0320FFF7BAFEA2
:1014E00010E00320FFF7C5FE0CE003210320FFF707
:1014F00096FE0320FFF7CDFE04E00720FFF7D8FE9D
:1015000000E0042501212078FFF7CFFD2078FFF7C8
:10151000DFFE607800F0E6F8A07800F0F7F8280029
:10152000C0B232BD00B501000020C9B2002906D00A
:1015300002291ED010D3042935D027D340E08C498E
:10154000098889B2244A1268D20AD2024905490D93
:101550001143214A116034E01C49098889B21E4AAE
:101560001268D20AD2024905490D11431A4A116084
:1015700027E01549098889B2174A1268D20AD202AF
:101580004905490D1143144A11601AE07949098847
:1015900089B2114A1268D20AD2024905490D114393
:1015A0000D4A11600DE07449098889B20A4A12682F
:1015B000D20AD2024905490D1143074A116000E0E1
:1015C0000420C0B200BD0000040C1000060C100086
:1015D000200C1000002000400C20004000366E015E
:1015E000142000403EB50400002568460C2100F0A0
:1015F0004FF961480088694608815E48008869465D
:10160000C8805E480088694688805D4800886946D1
:101610004880A07803282DD1684600895949096877
:101620004905490D884202D1E078032820DA68464E
:10163000C088544909684905490D884202D1E078BB
:10164000032815DA684680884E4909684905490D1E
:10165000884202D1E07804280ADA6846408849497D
:1016600009684905490D88420CD1E078072809DB53
:10167000062036E0E078444948434449884201D393
:1016800006202EE0207842490968424A0A40400379
:10169000C021C901014011433D48016060783C49C7
:1016A00009681C22914380001C2202400A433848EA
:1016B0000260E07836490968374A0A404001F02163
:1016C00049000140114332480160A078304909685F
:1016D000032291438007800F08432D4908602800AA
:1016E000C0B23EBD38B504000025FFF7D7FC2B483B
:1016F00000682B490140E4B22002E022D2000240FF
:101700000A43264802602800C0B232BD38B5040042
:101710000025FFF7C3FC2148006822490140E4B2DC
:10172000E002C022520102400A431C480260280025
:10173000C0B232BD00B502000020C9B2002901D0FC
:10174000012100E00021C9B2002907D0164909682B
:10175000012393400B4314490B6006E012490968CA
:10176000012393409943104A1160C0B200BD0000AC
:10177000080C1000020C1000000C1000040C1000EB
:10178000060C10000C20004000366E01016CDC02DB
:101790003C200040FF9FFFFF1FFEFFFF0020004096
:1017A000FFF8FFFFFFE7FFFF2020004080B5FFF7B5
:1017B000B9FD0949086001BD80B50848008880B2BC
:1017C00007490968C90AC9024005400D0843044990
:1017D0000860FFF7EBFF01BD7C000020080C100043
:1017E0000C200040124207D08B0706D00B78491C12
:1017F0000370401C521EF7D87047830706D00B7841
:10180000491C0370401C521EF9D1704770B4103A45
:1018100003D378C9103A78C0FBD2530701D318C953
:1018200018C001D508C908C0D20704D30B880380AB
:10183000891C801C002A01D50B78037070BC70478E
:101840001206130A1A43130C1A4300BF094205D0AB
:10185000830705D00270401C491EF9D17047000073
:10186000130030B414001500103902D310393CC0F5
:10187000FCD2490700D30CC000D504C0890002D3B4
:101880000280801C002900D5027030BC7047000027
:101890000022E5E700B5010049B2002905D4012185
:1018A000C006C00E81406248016000BD00B5010065
:1018B00049B2002905D40121C006C00E81405D480F
:1018C000016000BD00B5010049B2002905D4012125
:1018D000C006C00E81405848016000BDF0B502004E
:1018E00052B2002A1CD4804A03005BB29B08042435
:1018F0006343D258FF238407A40F08256C43A340F9
:101900009A438901C9B283079B0F08246343994016
:101910001143754A40B2800804235843115022E015
:101920007C4B020052B21207120F083A92080424AC
:101930006243784C05006DB22D072D0F083DAD08B0
:10194000042675436459FF258607B60F08277E4392
:10195000B540AC438901C9B28007800F08256843B0
:10196000814021439950F0BD70B501000020002254
:10197000002200E0521C1300DBB2022B0ED20B003F
:10198000DBB2654C1500EDB21C2675436459A342C9
:10199000F0D16148D2B21C214A43801870BD10B505
:1019A0000C000021C0B2FFF7DFFF002801D10420A6
:1019B00014E0E4B2002C0AD0012C10D0032C15D076
:1019C000042C1BD0052C21D0062C27D02EE04168FA
:1019D000496802220A4340684260002010BD416805
:1019E000496801220A4340684260F6E74168496855
:1019F000802292030A4340684260EEE741684968EA
:101A0000802252030A4340684260E6E74168496821
:101A1000802292010A4340684260DEE741684968DB
:101A2000802252000A4340684260D6E70420D5E78E
:101A300000E100E080E100E080E200E010B50C0091
:101A40000021C0B2FFF790FF002801D104200BE075
:101A500041684968C0229143E4B2A201C023134007
:101A60000B4340684360002010BD10B50C000021FE
:101A7000C0B2FFF779FF002801D1042016E0002C46
:101A800013D021784268526820239A4349012023C9
:101A900019401143426851602178012905D16178CC
:101AA00042689160A1784068C160002010BD10B507
:101AB0000C000021C0B2FFF757FF2100C9B2002976
:101AC00002290DD841684968524A0A40E4B2A1038C
:101AD000C0231B020B40134340684360002000E01A
:101AE000042010BD0000000000E400E010B50C0070
:101AF0000021C0B2FFF738FF41684968464A0A40F2
:101B0000E4B2610280239B001940114340684160A8
:101B1000002010BD1CED00E04400002010B50C00BA
:101B2000002100210021C0B2FFF71EFF406840687D
:101B3000410A0800C007C00F2179002901D1002007
:101B40001DE02179012902D0217903290CD1C0B2ED
:101B5000002801D1102200E008222068A168D2B23A
:101B6000514300F0D4F909E0C0B2002801D120218E
:101B700000E010212068C9B200F0C9F980B210BDA0
:101B800010B50C000021C0B2FFF7EEFEA4B2406811
:101B90008461002010BD10B50C000021C0B2FFF719
:101BA000E3FE002801D1042011E0E4B2002C012C56
:101BB00006D9E41E0CD0641E12D0641E18D026E094
:101BC0004168496810220A4340684260002010BD05
:101BD00041684968802292020A4340684260F5E702
:101BE00041684968802252020A4340684260EDE73A
:101BF00041684968802212030A4341684A6041688B
:101C000049688022D2020A4340684260DEE704202D
:101C1000DDE70000FF3FFFFFFFFDFFFF38B50C00D1
:101C200000250021C0B2FFF79FFE002801D104204B
:101C300038E0E4B2002C09D0022C13D00CD3042CD1
:101C40001CD015D3062C25D01ED329E0406800698E
:101C500005006D06ED0F23E0406800690500ED0703
:101C6000ED0F1DE0406800690500AD07ED0F17E0BE
:101C7000406800690500ED06ED0F11E0406800695D
:101C800005006D07ED0F0BE0406800690500AD062B
:101C9000ED0F05E04068006905002D07ED0FFFE737
:101CA0002800C0B232BD10B50C000021C0B2FFF751
:101CB0005BFE002801D104202DE0E4B2002C06D008
:101CC000022C12D00AD3042C1DD015D322E0416877
:101CD000496920229143406841611BE0416849699C
:101CE000012291434068416114E041684969022240
:101CF0009143406841610DE0416849691022914378
:101D00004068416106E041684969042291434068A6
:101D10004161FFE7002010BD70B504000E000020F7
:101D20002000C0B2FFF720FE0500002D01D10420E5
:101D300019E002212000C0B2FFF7B5FF6868006813
:101D4000FF218843F6B2064368680660022120003E
:101D5000C0B2FFF763FF0028F8D002212000C0B214
:101D6000FFF7A1FF002070BD80B50021C0B2FFF7D2
:101D7000FBFD002801D1042002E040680068C0B2E9
:101D800002BD38B5040000202000C0B2FFF7ECFD12
:101D90000500002D53D06868006901004907C90F8C
:101DA00000290AD004212000C0B2FFF77CFFE868B8
:101DB000002801D0E868804741E0686800690100B8
:101DC000C906C90F00290AD003212000C0B2FFF7BD
:101DD0006AFFA869002801D0A86980472FE06868D9
:101DE000006901008906C90F002909D000212000DF
:101DF000C0B2FFF758FF6869002801D068698047C2
:101E000068680069C00709D501212000C0B2FFF74A
:101E10004AFF2869002801D028698047686800695E
:101E200001008907C90F002909D002212000C0B292
:101E3000FFF739FFA868002801D0A868804731BDA6
:101E400010B50400A41D200040B2FFF73BFD0321A4
:101E5000200040B2FFF742FD200040B2FFF71AFD1C
:101E600010BD10B50400A41D200040B2FFF72AFDEC
:101E70000321200040B2FFF731FD200040B2FFF700
:101E800015FD10BD70B506000D00012000203000CA
:101E9000C0B2FFF769FD0400002C01D1042035E039
:101EA000002D01D1042031E029783000C0B2FFF7C5
:101EB000C5FD69783000C0B2FFF7F9FD68680028F9
:101EC00004D069683000C0B2FFF7CFFDA8680028D1
:101ED0000ED0A8684068E060A86880682061A868A3
:101EE0000068A060A868C0686061A8680069A06117
:101EF000287B012804D13000C0B2FFF7A1FF03E026
:101F00003000C0B2FFF7ADFF0020C0B270BD0022AC
:101F1000030A8B420BD203098B4219D243088B422E
:101F20002ED2411A00D20146524110467047FF227C
:101F300009023FD012068B4205D3121209028B42CE
:101F400001D31212090203098B4219D300E0090AD6
:101F5000C3098B4201D3CB01C01A524183098B4282
:101F600001D38B01C01A524143098B4201D34B016B
:101F7000C01A524103098B4201D30B01C01A5241CE
:101F8000C3088B4201D3CB00C01A524183088B4255
:101F900001D38B00C01A524143088B4201D34B003E
:101FA000C01A5241884200D3401A5241CFD2014652
:101FB0001046704708B500F001F808BD7047FEE70D
:101FC00010B588B001211C20FFF7B4FB01210B20C4
:101FD000FFF7B0FB0C2103A800F0FAFA052106A8D0
:101FE00000F0F6FA00206946087606AA07210020CC
:101FF00000F0FAFA04220721002000F0D8FB06AA1C
:102000000021402000F0F0FA02220021402000F0E0
:10201000CEFB06AA0121402000F0E6FA03220121AE
:10202000402000F0C4FB022069460873002003A989
:10203000C870072003A98870002003A948700020F9
:1020400003A90871012003A94871002003A9887120
:10205000002003A9C8716648059003A8FEF78EFD0D
:10206000FEF7A0FC01220021052000F033FC002037
:10207000FEF7F5FCC820C000012180B2FEF70EFE7D
:10208000E124E400210089B20120FEF72DFE2100A9
:1020900089B20320FEF728FE210089B20520FEF751
:1020A00023FE072069464870002069468870012099
:1020B0006946C87000206946087107206946887122
:1020C00000206946C87101206946087200206946EF
:1020D000487269460020FEF779FE69460120FEF746
:1020E00075FE69460220FEF771FE002080B2FEF701
:1020F000EFFD00210120FEF7A7FDFEF7C3FD08B0AC
:1021000010BD80B58AB0142105A800F061FA052140
:1021100003A800F05DFA01210820FFF70BFB012165
:102120001C20FFF707FB00206946087303AA08215B
:10213000002000F059FA04220621002000F037FBAD
:10214000022069460875002005A9C870072005A966
:102150008870002005A94870002005A90871012099
:1021600005A94871002005A98871002005A9C8713A
:102170002048089005A90120FEF7DCF90120FDF7B1
:10218000BBFF012200210F2000F0A4FB0021012051
:10219000FDF7E7FFC821C900012289B20120FEF73F
:1021A00025FBE122D20092B200210120FEF74EFB76
:1021B00007206946487000206946C87101206946B9
:1021C000C87000206946087169460120FEF76EFB61
:1021D000002189B20120FEF724FB00220121012009
:1021E000FEF7D6FA0120FEF7F3FA0BB000BD0000AF
:1021F000A5250000B925000080B50200C9B201295B
:1022000006D01DD303290FD008D3042912D017E01C
:1022100092B200210120FEF719FB11E0110089B2F2
:102220000120FEF761FD0BE0110089B20320FEF7EB
:102230005BFD05E0110089B20520FEF755FDFFE7C3
:1022400001BD38B505000C002000C0B2012800D047
:1022500040E1CE482900C9B2022251434018801EF5
:102260000088401EC9492A00D2B202235A43891865
:10227000891E088000212800C0B200F08AFC2800D6
:10228000C0B2012803D02800C0B2022804D1002126
:10229000052000F07EFC0BE02800C0B2032803D02C
:1022A0002800C0B2042803D10021062000F071FCF0
:1022B000B6482900C9B2022251434018801E008846
:1022C00000280FD10220B2492A00D2B28918491E33
:1022D00008700020AD492A00D2B202235A4389185F
:1022E000891E0880A9482900C9B20222514340181A
:1022F000801E0088A749401A632841D2A6482900B9
:10230000C9B2022251434018801E0088401CA249D5
:102310002A00D2B202235A438918891E08809E4897
:102320002900C9B2022251434018801E00880A28A1
:1023300015D1002098492A00D2B202235A438918A5
:10234000891E08802900C9B290482A00D2B202230F
:102350005A438018801E0088FFF74EFFBAE08B4872
:102360002900C9B2022251434018801E0088401C37
:102370008649EDB2022255434919891E088003E1BE
:1023800082482900C9B2022251434018801E0088A9
:102390008249401AFF212C31884241D27E482900CF
:1023A000C9B2022251434018801E0088401C7A495D
:1023B0002A00D2B202235A438918891E088076481F
:1023C0002900C9B2022251434018801E0088052806
:1023D00015D1002070492A00D2B202235A4389182D
:1023E000891E08802900C9B268482A00D2B2022397
:1023F0005A438018801E0088FFF7FEFE6AE063489B
:102400002900C9B2022251434018801E0088401C96
:102410005E49EDB2022255434919891E0880B3E096
:102420005A482900C9B2022251434018801E008830
:102430005B49401AC72841D257482900C9B2022235
:1024400051434018801E0088401C53492A00D2B2D4
:1024500002235A438918891E08804F482900C9B2AF
:10246000022251434018801E0088022815D1002006
:1024700049492A00D2B202235A438918891E08808A
:102480002900C9B241482A00D2B202235A43801817
:10249000801E0088FFF7B0FE1CE03C482900C9B24E
:1024A000022251434018801E0088401C3749EDB27B
:1024B000022255434919891E088065E02900C9B2E6
:1024C00032482A00D2B202235A438018801E008864
:1024D000FFF792FEE4B2002C56D12C482900C9B275
:1024E000022251434018801E0088401C27492A00C0
:1024F000D2B202235A438918891E08802348290032
:10250000C9B2022251434018801E0088E121C9004F
:1025100088422EDB02201E492A00D2B28918491EA9
:102520000870E120C00019492A00D2B202235A43A0
:102530008918891E088001212800C0B200F029FBFB
:102540002800C0B2012803D02800C0B2022804D15C
:102550000121052000F01DFB0BE02800C0B203287C
:1025600003D02800C0B2042803D10121062000F0C6
:1025700010FB2900C9B20548EDB2022255434019AB
:10258000801E0088FFF738FE31BD000000000020EB
:1025900008000020DD05000098000020B1040000C4
:1025A000E903000080B50020FEF7EAF9012802D116
:1025B0000020FEF7EEF901BD80B500210120FDF7F6
:1025C0007FFD012803D100210120FDF787FD01BD1A
:1025D00000B5002803D106E000220270401C0A006A
:1025E000511E002AF8D100BD30B50300DBB20C004B
:1025F000E4B2A4001B19734C1B1900241C6013784F
:10260000012B0DD10300DBB26F4C1B191B68012499
:102610008C401C430300DBB26B4D5B191C600CE06B
:102620000300DBB2684C1B191B6801248C40A343D8
:102630000400E4B2644D641923605378002B0DD17B
:102640000300DBB2614C1B191B6801248C40A343BF
:102650000400E4B25D4D641923600CE00300DBB2BA
:102660005A4C1B191B6801248C401C430300DBB22D
:10267000564D5B191C609378012B1AD10300DBB215
:10268000534C1B191B6801248C401C430300DBB214
:102690004F4D5B191C600300DBB24E4C1B191B68CD
:1026A00001248C40A3430400E4B24A4D6419236022
:1026B00037E09378022B1AD10300DBB2444C1B198C
:1026C0001B6801248C40A3430400E4B2404D64190C
:1026D00023600300DBB23F4C1B191B6801248C40B4
:1026E0001C430300DBB23B4D5B191C6019E0030087
:1026F000DBB2374C1B191B6801248C40A343040038
:10270000E4B2334D641923600300DBB2314C1B1972
:102710001B6801248C40A3430400E4B22D4D6419CE
:102720002360D378002B0CD10300DBB22A4C1B1999
:102730001B6801248C40A343C0B2274940180360A2
:102740000BE00300DBB2244C1B191B6801248C40F6
:102750001C43C0B220494018046010792049096820
:102760001E4A0A40C00380210902084010431C4948
:102770000860002030BD0200D2B21A4BD218126895
:1027800001238B401343C0B2164940180360002058
:1027900070470200D2B2144BD218126801238B404A
:1027A0001343C0B210494018036000207047C0B204
:1027B000C9B28900401803494018D2B20260002013
:1027C00070470000000C0240000D02401C0D02404A
:1027D000200D0240240D02402C0D0240FF7FFFFF20
:1027E000080F0240100D0240140D024000B5010018
:1027F00049B2002905D40121C006C00E81403048ED
:10280000016000BD00B5010049B2002905D40121D5
:10281000C006C00E81402B48016000BD00B501001C
:1028200049B2002905D40121C006C00E81402648C6
:10283000016000BDF0B5020052B2002A1CD4234A48
:1028400003005BB29B0804246343D258FF23840730
:10285000A40F08256C43A3409A438901C9B283079A
:102860009B0F0824634399401143184A40B28008E3
:1028700004235843115022E0154B020052B21207B4
:10288000120F083A920804246243114C05006DB2FD
:102890002D072D0F083DAD08042675436459FF250B
:1028A0008607B60F08277E43B540AC438901C9B2FD
:1028B0008007800F08256843814021439950F0BD6F
:1028C00000E100E080E100E080E200E000E400E000
:1028D0001CED00E070B504000E001500200040B2B1
:1028E000FFF79CFF3100C9B2200040B2FFF7A2FF02
:1028F000EDB2012D04D1200040B2FFF777FF03E0D5
:10290000200040B2FFF77EFF70BD80B50020009030
:1029100000980028FCD001BD80B5002000F0D9F956
:1029200001BD80B5402000F0D4F901BD80B5802004
:1029300000F0CFF901BD80B5C02000F0CAF901BD9B
:1029400080B5002000BF00BF01BD80B50020FFF7AB
:1029500018FA01BD80B50120FFF713FA01BD80B55B
:10296000002000F046FA01BD80B5012000F041FAD8
:1029700001BD80B5002000BF00BF01BD80B50120B2
:1029800000BF00BF01BD80B5002000BF00BF01BD7A
:1029900080B5012000BF00BF01BD80B50020FDF75C
:1029A00016FC01BD80B50120FDF711FC01BD80B50D
:1029B0000220FDF70CFC01BD80B50020FEF7BEF83B
:1029C00001BD80B5002000BF00BF01BD80B504205F
:1029D00000BF00BF01BD80B5052000BF00BF01BD25
:1029E00080B5062000BF00BF01BD80B5002000BF3C
:1029F00000BF01BD80B5002000F064FA01BD80B5C4
:102A0000002000BF00BF01BD80B5002000BF00BF97
:102A100001BD80B5002000BF00BF01BD80B5002012
:102A200000BF00BF01BD80B5012000BF00BF01BDD8
:102A300080B5002000BF00BF01BD80B5002000BFF1
:102A400000BF01BD80B5002000F056FA01BD80B581
:102A5000002000BF00BF01BDE0B505216846FFF7BB
:102A6000B7FD01211C20FEF765FE002069460870B5
:102A70000120694648700120694688700020694637
:102A8000C8706A4605210020FFF7AEFD6A460221A4
:102A90004020FFF7A9FD6A460A214020FFF7A4FD68
:102AA0006A460B214020FFF79FFD6A460421002063
:102AB000FFF79AFD6A4600210020FFF795FD0121EE
:102AC000012000F066F80121022000F062F80121E7
:102AD000032000F05EF80121042000F05AF80121E3
:102AE000052000F056F80121062000F052F807BD3D
:102AF000E0B505216846FFF76BFD01211C20FEF7BC
:102B000019FE0020694608700120694648700120BE
:102B10006946887000206946C8706A4606214020D0
:102B2000FFF762FD6A4607214020FFF75DFD6A4618
:102B300008214020FFF758FD6A4609214020FFF791
:102B400053FD00220621402000F010F8002207214A
:102B5000402000F00BF800220821402000F006F889
:102B600000220921402000F001F807BD80B51300C4
:102B7000DBB2002B04D1C9B2C0B2FFF70AFE01BD1F
:102B8000D2B2012A04D1C9B2C0B2FFF7F4FDF6E710
:102B9000F5E780B50A00D2B2002A2BD1C0B20128D5
:102BA00009D026D3032810D00AD3052817D011D373
:102BB000062819D01DE005210020FFF7EAFD01BD20
:102BC00002214020FFF7E5FDF9E70A214020FFF749
:102BD000E0FDF4E70B214020FFF7DBFDEFE70421E8
:102BE0000020FFF7D6FDEAE700210020FFF7D1FD26
:102BF000E5E7E4E7C9B201292BD1C0B2012809D029
:102C000026D3032810D00AD3052817D011D30628BD
:102C100019D01DE005210020FFF7ADFDCFE702210F
:102C20004020FFF7A8FDCAE70A214020FFF7A3FDD7
:102C3000C5E70B214020FFF79EFDC0E704210020DF
:102C4000FFF799FDBBE700210020FFF794FDB6E7F1
:102C5000B5E7B4E710B500210220FDF731FA0128ED
:102C600036D130480078142804D100F053FC0020FD
:102C70002C4908702B480078401C2A4908702A48C3
:102C80000078002808D029480078002804D0274878
:102C90000078401E2549087000240FE024482100D8
:102CA000C9B2405C012808D122482100C9B2415C68
:102CB0002000401CC0B2FFF7C4FA641C2000C0B260
:102CC0000428EBDB00F090FD00210220FDF706FA5E
:102CD00010BD704710B518480078092803DB0020A4
:102CE000154908701DE0144804782000401C124962
:102CF00008700120FFF738F81049E4B208550F4872
:102D00000078552802D000200B4908700A48007846
:102D1000082803DB01200A49087002E00020084966
:102D2000087010BDE0000020E3000020E400002057
:102D300008000020C4000020E2000020A0000020C5
:102D4000E100002070B5010000200022002200E018
:102D5000521C1300DBB2022B0ED20B00DBB2074C6D
:102D60001500EDB21C2675436459A342F0D1034807
:102D7000D2B21C214A43801870BD00000C00002014
:102D800010B50C000021C0B2FFF7DCFF002801D114
:102D900004202DE0E4B2002C06D0022C12D00AD37D
:102DA000042C1DD015D322E04168496920229143AB
:102DB000406841611BE041684969012291434068D4
:102DC000416114E0416849690222914340684161D0
:102DD0000DE041684969102291434068416106E075
:102DE000416849690422914340684161FFE700203E
:102DF00010BD38B5040000202000C0B2FFF7A2FFCC
:102E00000500002D53D06868006901004907C90F0B
:102E100000290AD004212000C0B2FFF7B1FFE86802
:102E2000002801D0E868804741E068680069010037
:102E3000C906C90F00290AD003212000C0B2FFF73C
:102E40009FFFA869002801D0A86980472FE0686823
:102E5000006901008906C90F002909D0002120005E
:102E6000C0B2FFF78DFF6869002801D0686980470C
:102E700068680069C00709D501212000C0B2FFF7CA
:102E80007FFF2869002801D02869804768680069A9
:102E900001008907C90F002909D002212000C0B212
:102EA000FFF76EFFA868002801D0A868804731BDF1
:102EB00001201E200F490860E1200E490860002013
:102EC000C0B2704780B50948006801000906C90F03
:102ED000002908D0FFF7ECFF05480068002802D061
:102EE00003480068804701BD00000000840F0040D7
:102EF000DC000020800F004080B5494800680028B1
:102F000002D047480068804701BD00B50021C0B22B
:102F1000002807D001280BD1424801680800C007EB
:102F2000C00F06E03F48016808008007C00F00E0BE
:102F30000020C0B200BD00B50121C0B2002819D0E8
:102F400001282FD138480068000C0004374901439C
:102F50003548016034480068000C000434490143DE
:102F600031480160334800680121884331490860D5
:102F7000002018E02C480068000C00042B49014395
:102F80002948016028480068000C000428490143D2
:102F900025480160274800680221884325490860C8
:102FA000002000E00120C0B200BD00B50121C0B288
:102FB000002802D0012818D02FE01B480068000C20
:102FC00000041A4901431848016017480068000CC2
:102FD0000004174901431448016017480068402164
:102FE000884315490860002018E00F480068000C6D
:102FF00000040E4901430C4801600B480068000CB6
:1030000000040B490143084801600B480068202177
:10301000884309490860002000E00120C0B200BDDB
:10302000D4000020240002402C0002405A5A000024
:10303000A5A50000280002402000024030B5030092
:1030400000200C00E4B2012C16D00C00E4B2022CDB
:1030500012D00C00E4B2042C0ED00C00E4B2062C0A
:103060000AD00C00E4B2082C06D00C00E4B20C2C00
:1030700002D00420C0B255E1AB4C2468240C2404D7
:10308000AA4D2543A84C2560A74C2468240C240491
:10309000A94D2543A44C2560A84C2468A44D254087
:1030A000D2B252028024A40022402A43A34C2260C0
:1030B0009D4A1268120C12049C4C14439A4A1460E4
:1030C000994A1268120C12049B4C1443964A1460DD
:1030D000984A1268520A52020C00E4B220256C434E
:1030E000E405E40D1443934A14608F4A1268120CED
:1030F00012048E4C14438C4A14608B4A1268120CD2
:1031000012048D4C1443884A14608D4A1268FF24BF
:10311000A2430C00E4B217256C43E4B21443884A7E
:103120001460814A1268120C1204804C14437E4AC7
:1031300014607D4A1268120C12047F4C14437A4AC0
:103140001460804A1268520A52020C00E4B21B2535
:103150006C43E405E40D14437A4A1460724A126821
:10316000120C1204714C14436F4A14606E4A1268B8
:10317000120C1204704C14436B4A1460724A1268A9
:10318000920C92040C00E4B2704D6C43A403A40BA7
:1031900014436D4A1460644A1268120C1204634CA2
:1031A0001443614A1460604A1268120C1204624CA3
:1031B00014435D4A1460664A1268520D52050C00B1
:1031C000E4B2644D6C43E402E40A1443604A1460C0
:1031D000554A1268120C1204544C1443524A14609B
:1031E000514A1268120C1204534C14434E4A146094
:1031F000594A1268120B12030C00E4B218256C43F2
:103200002405240D1443544A1460474A1268120CD2
:103210001204464C1443444A1460434A1268120C88
:103220001204454C1443404A14604C4A1268120B75
:1032300012030C00E4B2F0256C432405240D144362
:10324000464A1460384A1268120C1204374C144370
:10325000354A1460344A1268120C1204364C144376
:10326000314A14603E4A1268520B52030C00E4B219
:10327000FA25AD006C43E404E40C1443384A1460AE
:103280000A00D2B2082A18D127490968090C090492
:10329000264A0A4324490A6023490968090C09049B
:1032A000254A0A4320490A60244909680C229143AF
:1032B00004220A4321490A6031E0C9B20C2918D11D
:1032C00019490968090C0904184A0A4316490A6091
:1032D00015490968090C0904174A0A4312490A608A
:1032E000164909680C22914308220A4313490A60CF
:1032F00015E00D490968090C09040C4A0A430A49FA
:103300000A6009490968090C09040B4A0A4306497D
:103310000A600A4909680C229143084A11603F4932
:103320000B60C0B230BD00002C0002405A5A0000B1
:10333000FFFDFFFF00000240A5A5000020000240A5
:1033400004000240080002400C0002405046000009
:1033500010000240E0220200140002401800024067
:103360001C00024000B50100002080225202914260
:1033700002D30420C0B24FE0294A1268120C120492
:10338000284B1343264A1360254A1268120C120474
:10339000264B1343224A13600022D243224B1A6069
:1033A000234A12681300DB06DB0F002BF8D11C4AFE
:1033B0001268120C12041B4B1343194A1360184A6B
:1033C0001268120C1204194B1343154A1360184A61
:1033D000126803239A4302231343154A1360002201
:1033E0000A70134909680A00D206D20F002AF8D1E0
:1033F0000B490968090C09040A4A0A4308490A608A
:1034000007490968090C0904084A0A4304490A6083
:103410000021054A1160C0B200BD0000D4000020A8
:103420002C0002405A5A000030000240A5A50000BE
:103430002000024000B5010000201F4A12688023CE
:103440001B0613431C4A1360184A1268120C12041C
:10345000174B1343154A1360144A1268120C1204D6
:10346000144B1343114A13600A00D2B2002A06D14A
:10347000124909680C229143104A116013E0C9B245
:10348000012908D10D4909680C22914304220A43FD
:103490000A490A6007E0094909680C229143082299
:1034A0000A4306490A60C0B200BD00002C00024079
:1034B0005A5A0000A5A5000020200040200002402C
:1034C000E0B505216846FFF783F801211C20FEF7CF
:1034D00031F90120694608700120694648700120D1
:1034E0006946887000206946C8706A460F2100202E
:1034F000FFF77AF86A4603214020FFF775F86A461D
:1035000004214020FFF770F86A4605214020FFF7AC
:103510006BF807BD1CB5684600210160002022E061
:1035200000216A460300DBB2D1540021884A03001F
:10353000DBB2D1540021874A0300DBB2D15409E049
:103540000121854A0300DBB2D1540021834A0300E4
:10355000DBB2D1547F490200D2B2895C7C4A0300BD
:10356000DBB2D154401C0100C9B2042900DBE4E005
:103570007B490200D2B202235A43895C734A8918FC
:103580000968774A0300DBB202246343D2185278F9
:10359000D140C90706D4012181406E4A0300DBB245
:1035A000D15404E000216B4A0300DBB2D1546A49D4
:1035B0000200D2B2895C002907D0022949D01ED36B
:1035C000042900D197E064D3AAE762490200D2B28D
:1035D000895C5F4A0300DBB2D25C914204D00121D6
:1035E0005D4A0300DBB2D15400216A460300DBB21E
:1035F000D1540021594A0300DBB2D154AAE75549FE
:103600000200D2B2895C524A0300DBB2D25C914222
:103610000FD10221504A0300DBB2D1544C490200C1
:10362000D2B2895C10220A4369460300DBB2CA5455
:1036300009E00021484A0300DBB2D15400216A4668
:103640000300DBB2D1540021444A0300DBB2D15461
:1036500080E740490200D2B2895C3D4A0300DBB2F8
:10366000D25C914205D103213B4A0300DBB2D15425
:1036700004E00021384A0300DBB2D15400216A463D
:103680000300DBB2D1540021344A0300DBB2D15431
:1036900060E730490200D2B2895C2D4A0300DBB2F8
:1036A000D25C914221D12D490200D2B2895C0A003C
:1036B000521C2A4B0400E4B21A55C9B24C2919DB3A
:1036C0000021264A0300DBB2D1540421224A030020
:1036D000DBB2D1541E490200D2B2895C40220A43B7
:1036E00069460300DBB2CA5404E000211A4A030011
:1036F000DBB2D1542EE717490200D2B2895C144ADA
:103700000300DBB2D25C914200D11EE710490200F7
:10371000D2B2895C80220A4369460300DBB2CA54F4
:103720000C490200D2B2895C002900D008E70021D0
:10373000094A0300DBB2D15407E704226946094C69
:103740002000FEF74FF8002016BD0000040D0240D7
:10375000B0000020B4000020AC000020B800002021
:103760004C410000C000002000B585B0142168461F
:10377000FEF72EFF01210820FDF7DCFF002069463F
:10378000087000206946487107206946C87001200A
:103790006946887100206946087100206946887072
:1037A0000020694648701648049069460220FCF7DC
:1037B0003BFD00210220FCF791FC01220321102097
:1037C000FFF788F80220FCF7BDFC0E4989B2022001
:1037D000FCF776FE0B4989B20220FCF73FFE02207F
:1037E000FCF72CFE05B000BD00B5074800680028B6
:1037F00004D005480068401E0349086000BD000071
:10380000552C000044FF0000BC00002080B5B648E5
:10381000007800282DD00020B34908700020B3495B
:1038200008700721B24800F065F9B149C979C0B202
:1038300088421ED1AE484078012801D100F01AF824
:10384000AB488078C449897D884212D1A848407825
:10385000022804D0032805D0062806D009E000F08D
:1038600032F806E000F0B5F803E000F081F900F06E
:103870001DF901BD1CB508229D496C462000FDF7CD
:10388000B1FF0721684600F035F96946C87101218A
:103890000020FEF770FF0821684600F028FA012199
:1038A0000020FEF776FFA520AB490870904880788D
:1038B000A949887500F05CF91722A749FE2000028B
:1038C00000F064F913BD80B58948C078002803D0A2
:1038D000022819D00CD318E00120A049087000205C
:1038E0009F490870002206214020FFF73FF90CE0B5
:1038F00001209A4908700120994908700122062187
:103900004020FFF733F900E0FFE77948007900280D
:1039100003D0022819D00CD318E001208F49487039
:1039200000208F494870002207214020FFF71EF930
:103930000CE0012089494870012089494870012222
:1039400007214020FFF712F900E0FFE768484079BF
:10395000002803D0022819D00CD318E001207F4999
:10396000887000207E498870002208214020FFF7DF
:10397000FDF80CE0012079498870012078498870B1
:10398000012208214020FFF7F1F800E0FFE7584846
:103990008079002803D0022819D00CD318E0012028
:1039A0006E49C87000206E49C8700022092140206D
:1039B000FFF7DCF80CE001206849C8700120684975
:1039C000C870012209214020FFF7D0F800E0FFE78E
:1039D00001BD1CB555206946087003206946487032
:1039E0005D48807D6946887004225D496846C41C34
:1039F0002000FDF7F7FE0721684600F07BF86946D6
:103A0000C8710821684600F072F913BD7CB5554AAB
:103A10001278002A49D0544A1278002A45D10C0065
:103A20000500082100226E463000FDF709FF5520F1
:103A3000694608700520694648704748807D694698
:103A40008870002016E000216A460300DBB2D2181D
:103A5000D1700EE00100C9B2695C0122824091423E
:103A6000F1D10100C9B2615C6A460300DBB2D21831
:103A7000D170401C0100C9B20429EBDB04210022F3
:103A80002800FDF7DDFE042100222000FDF7D8FE0E
:103A90000721684600F02EF86946C871082168467B
:103AA00000F025F900202F49087073BD1CB5552082
:103AB000694608700620694648702C48807D694632
:103AC0008870042100226846C41C2000FDF7B8FE5F
:103AD0000721684600F00EF86946C871082168465B
:103AE00000F005F913BD0000E1000020E200002015
:103AF000A000002030B502001078012305E004008A
:103B00001800C0B2105C60405B1C1C000D00E4B2E9
:103B1000EDB2AC42F3D3C0B230BD80B517220E492E
:103B2000FE20000200F02CF80B480078A52802D0F7
:103B300003200949887508488078094908700648B3
:103B4000C0780749487004480079054988700248E0
:103B500040790349C87001BD8000002008000020A2
:103B6000C4000020E3000020E400002080000020CA
:103B700080B572B6FE200002FFF7F4FB62B601BD0D
:103B800080B5D2B280B200F0FCF801BD70B504007F
:103B90000D00160072B6200080B2FFF7E3FB320082
:103BA000D2B22900A4B2200000F0FAF862B670BDCB
:103BB000E0B505216846FEF70BFD00206946087058
:103BC0006A4601210020FEF70FFD01210020FEF7CB
:103BD000E0FD6A4602210020FEF706FD01220221D7
:103BE0000020FEF7E4FD0120694608706A460321C3
:103BF0000020FEF7F9FC012203210020FEF7D7FD8B
:103C000007BD00B58DB00020102104A8FEF7E0FC30
:103C1000142108A8FEF7DCFC03216846FEF7D8FC57
:103C20000C2101A8FEF7D4FC01211C20FDF782FD28
:103C300001210120FDF77EFDFFF7BAFF25480A901C
:103C4000254808902548099025480C9025480B9058
:103C500008A80690012004A9087301206946087489
:103C6000002004A948700020694608706846059045
:103C700004A90120FEF706F901210120FDF736FF16
:103C8000FDF701FC0190012001A908719620C001F7
:103C9000039001A90120FDF741FF010089B2012035
:103CA000FDF76EFF10480068102101430E480160C7
:103CB00001210120FDF7F7FF02210120FDF7F3FFAD
:103CC00001210120FDF767FF01210120FDF767FEBB
:103CD0000DB000BDD52C0000ED3C0000253D0000DE
:103CE000273D0000293D000004010040704770B5E9
:103CF00006000C0001210020FEF73DFD002506E036
:103D00002800C0B2315C0120FEF706F86D1C2800C7
:103D10002100C0B2C9B28842F2D301210020FEF7CF
:103D200038FD70BD704770477047FEE780B50122CF
:103D30000C215D48FFF782F901BD80B50120FFF736
:103D4000E4F801280BD10120FFF7F5F85748006887
:103D500001210143554801600120FFF726F90020A9
:103D6000FFF7D3F801280BD10020FFF7E4F84F4804
:103D70000068022101434D4801600020FFF715F95A
:103D800001BD30B5002304E004780C70491C401CD0
:103D90005B1C1C001500E4B2EDB2AC42F4D330BDA4
:103DA00030B580235B02984201D304207BE0404B76
:103DB0001B681B0C1B043F4C1C433D4B1C603C4BC5
:103DC0001B681B0C1B043C4C1C43394B1C60002320
:103DD000DB433A4C23603A4B1B681C00E406E40FBB
:103DE000002CF8D1324B1B681B0C1B04314C1C43BC
:103DF0002F4B1C602E4B1B681B0C1B042E4C1C43B2
:103E00002B4B1C602E4B1B680324A34302241C4332
:103E10002B4B1C6000230370294B1B681C00E4061D
:103E2000E40F002CF8D1224B1B681B0C1B04214C07
:103E30001C431F4B1C601E4B1B681B0C1B041E4CA1
:103E40001C431B4B1C601E4B1B680324A343012413
:103E50001C431B4B1C60002304E00C780470401CC6
:103E6000491C5B1C1C001500E4B2EDB2AC42F4D35B
:103E7000134800680100C906C90F0029F8D10C4891
:103E80000068000C00040B49014309480160084820
:103E90000068000C00040849014305480160002047
:103EA00006490860002030BD3B3D0000A80000200E
:103EB0002C0002405A5A0000A5A500003000024024
:103EC0002000024030B500221AE01E4B1400E4B27C
:103ED0001B5D1B060ED504231400E4B20B5509E04C
:103EE000184B1400E4B21B5D5B06EED503231400EF
:103EF000E4B20B550023134C1500EDB26355521C70
:103F00001300DBB2042B1BDA0E4B1400E4B21B5D72
:103F1000002BF4D001230C4C237028230B4C23706E
:103F2000012393401400E4B20355064B1400E4B29D
:103F30001B5DDB06D4D501231400E4B20B55D9E791
:103F400030BD0000C0000020E3000020E40000209D
:103F50001CB500F029F8FFF7E9FEFFF705FCFFF7B5
:103F600050FEFFF7DAFDFEF777FDFEF7C1FDFFF724
:103F7000A7FAFEF7C6F8FEF723F80421002201ACE9
:103F80002000FDF75DFC042100226C462000FDF7B7
:103F900057FC694601A8FFF795FF694601A8FFF79E
:103FA00035FDFFF733FCF4E7E0B501211F20FDF7F5
:103FB000C1FB0220FFF73EFA0420FDF7B3FA03200D
:103FC0006946087004206946487003206946887075
:103FD00002206946C8706846FDF704FB0420694664
:103FE0000871002001A94870002001A9887001A86B
:103FF000FDF762FA07BD70B40123002413E00168E5
:10400000001D194202D04D466D1E49190C60091D54
:10401000121F042AFAD20D00960701D50C80AD1CA0
:104020001A4000D02C700268001D002AE7D170BC35
:10403000704730B501684118446862088A1883687F
:10404000E4070DD54C461B190AE00C7864B2491CF4
:104050000D78491C1D705B1C002C05D5641CF9D122
:104060009142F2D10C3030BD641EF1D5F8E7FEE785
:1040700005480022874500D90244044802600448EC
:1040800080470448004700000000002008ED00E0E1
:10409000B91700004141000010B5074979441831B3
:1040A000064C7C44163404E0081D0A6889188847C9
:1040B0000100A142F8D110BD08000000240000005A
:1040C00037FFFFFF680000008000002000000000B4
:1040D00063FFFFFF840000005E000000000000207E
:1040E00000F00DF8002801D0FFF7D6FF00BF00BF99
:1040F000002000BF00BFFFF72BFF00F002F80120F7
:10410000704780B500F002F801BDFEE7074638466B
:1041100000F002F8FBE7000080B500BF00BF024AD4
:1041200011001820ABBEFBE72600020000093D008D
:1041300000127A000024F4004086510100366E011E
:1041400000BF00BF00BF00BFFFF7CAFF000F400362
:104150004004400500800096070807080708070884
:1041600007FC02FB0002020040EC000001FC000220
:10417000400040E5000040EC000001FC00020100AE
:0741800040EB00026CDC02C1
:040000050000414175
:00000001FF
