:1000000080060020858B0000A70F0000DD15000092
:1000100000000000000000000000000000000000E0
:10002000000000000000000000000000A70F00001A
:100030000000000000000000A70F00001186000073
:10004000EB150000F5150000FF1500000916000073
:10005000131600008B1600001D1600002716000066
:10006000311600003B160000451600004F16000038
:1000700059160000631600006D1600007716000088
:1000800081160000951600009F160000A9160000BA
:10009000B3160000BD160000C7160000D116000000
:1000A000DB160000E5160000EF160000F916000050
:1000B000031700000D17000017170000211700009C
:1000C00080B587480078002834D000F034F885489F
:1000D0000078002802D000F0A9FE2BE082480078CA
:1000E00000280AD181488168814800F0E7FE00F0CD
:1000F0003DFF80B200F0FEFA16E07B480078012850
:1001000007D17A4881790A20484380B200F0F2FA98
:100110000AE075480078022806D176480178052063
:10012000484380B200F0E6FA00F036F800F0E8F854
:1001300000F09AF901BD10B500200100C9B20429F0
:1001400008DA00216C4A0300DBB204246343D15077
:10015000401CF2E710BD10B500242000C0B20428F6
:100160000BDA65482100C9B20422514341582000EE
:10017000C0B201F0C9F8641CEFE710BD10B500244F
:100180002000C0B2042806DA00212000C0B201F02D
:10019000BBF8641CF4E710BD00B557480068802127
:1001A0000905014354480160534800688021490211
:1001B0000143514801604C48007800282CD14E483A
:1001C00000688021490001434B4801604A480068AB
:1001D0004A4901404848016046480078002807D055
:1001E0004548C0688021090101434348C16005E0DA
:1001F0004148C0689A4901403F48C1603E48806814
:100200008021090301433C4881603B484068082144
:1002100001433948416054E03348007801282CD12B
:10022000354800688F490140334801603248006812
:10023000802189000143304801602E480078002861
:1002400007D02D48C0688021090101432A48C160B8
:1002500005E02948C068824901402748C160264816
:100260008068802109030143234881602248406857
:10027000082101432048416023E01B480078022800
:100280001FD11D480068774901401B4801601A488A
:1002900000681A490140184801601748C068802169
:1002A000090101431448C160134880688021090393
:1002B00001431148816010484068082188430E4975
:1002C00048600D4800688021C90001430A48016068
:1002D00009480068012101430748016000BD000092
:1002E0007E0000205F0400206C040020C803002072
:1002F000000020416F040020E8030020FFFDFFFF05
:1003000000B5A848C07B4007400F002807D002284E
:1003100045D024D3042800D181E060D39FE0A248D7
:1003200000688021490401439F4801609E4800689D
:100330009E4901409C4801609B4800689C490140DF
:1003400099480160984800689A49014096480160C0
:100350009548006898490140934801607FE09248C1
:10036000006896490140904801608F4800688021EC
:10037000890401438C4801608B4800688C49014026
:1003800089480160884800688A49014086480160C0
:100390008548006888490140834801605FE08248E1
:1003A000006886490140804801607F4800687F49B5
:1003B00001407D4801607C4800688021890201433A
:1003C00079480160784800687A49014076480160C0
:1003D0007548006878490140734801603FE0724801
:1003E000006876490140704801606F4800686F49B5
:1003F00001406D4801606C4800686D4901406A48E1
:100400000160694800688021C902014366480160B3
:100410006548006868490140634801601FE0624820
:10042000006866490140604801605F4800685F49B4
:1004300001405D4801605C4800685D4901405A48E0
:100440000160594800685B490140574801605648BF
:10045000006880210903014353480160FFE700BDA4
:10046000FFF7FFFFFFFEFFFF00B54E48C07BC0B2A5
:10047000C0088007800F002805D0022829D015D396
:10048000032839D04CE04848006802218843464997
:100490000860454800680421884343490860424891
:1004A0000068474901404048016039E03E48006823
:1004B000022101433C4801603B4800680421884315
:1004C00039490860384800683D49014036480160B4
:1004D00026E0354800680221014333480160324874
:1004E000006804210143304801602F480068344906
:1004F00001402D48016013E02B48006802210143B0
:100500002948016028480068042101432648016009
:100510002548006880210901014323480160FFE765
:100520002048C07BC0B240090100C907C90F00299B
:1005300006D01D480068082101431B48016005E002
:100540001948006808218843174908601D48007849
:10055000002825D01348C07BC0B2C0088007800F98
:1005600001281DD14C480088401C4B4908804A484E
:1005700000880A2803D100204749088010E0464837
:100580000088062806DB0848006802210143064867
:10059000016005E0044800680221884302490860C0
:1005A00000BD0000C8030020E8030020FFFFFFFD9E
:1005B000FFFFFDFFFFFFFBFFFFFFF7FFFFFFFFFE5A
:1005C000FFF7FFFF7004002018B504006846002103
:1005D0000160200080B2642100F014FF0A2100F0C5
:1005E00011FF68460170200080B20A2100F00AFF66
:1005F0000A2100F007FF68464170200080B20A21FE
:1006000000F000FF684681706846007800280BD033
:100610003748C06892496A46127804235A43895879
:1006200001433348C16006E03148C0688C49096A1B
:1006300088432F49C8602E48806889496A465278A5
:1006400004235A438918896A01432948816028484C
:10065000406883496A46927804235A438918096D91
:1006600001432348416022484068914901402048A5
:1006700041601F4880687A496A46927804235A4349
:100680008918096D01431A4881601948806807215B
:1006900088431749886011BD500400208548C06810
:1006A0006F49096A88438349C860824880686C49F9
:1006B000896C88437F4988607E4840686849096F33
:1006C00088437C4948607B484068794901407948C3
:1006D0004160784880686249096F8843754988603D
:1006E0007448806807218843724988607047000019
:1006F000E803002010B50400200080B2FFF764FF7B
:1007000010BD18B50400684600210180200040B2E9
:10071000642805DA200040B26221C94388422DDAFC
:1007200064488068AF490140624881606148C068A0
:10073000C14901435F48C1605E488068E021C90447
:1007400001435C4881605B484068E021C900014387
:1007500058484160574840685549014055484160F4
:1007600054488068E021C9000143524881605148E3
:100770008068072188434F49886047E0200040B2E5
:100780000A2100F03FFE0A2100F03CFE684601709D
:10079000200040B20A2100F035FE6846417045480D
:1007A000C0688021890001434248C1604148806897
:1007B0002B496A46127804235A438918896A0143EF
:1007C0003C4881603B48406825496A46527804238A
:1007D0005A438918096D01433648416035484068DD
:1007E0003349014033484160324880681C496A46B9
:1007F000527804235A438918096D01432D488160BA
:100800002C488068072188432A49886011BD000070
:100810002848C068B04901432648C160254880681F
:10082000C24901432348816022484068E021C90051
:100830000143204841601F4840681D4901401D4850
:1008400041601C488068E021C9000143194881606B
:10085000184880680721884316498860704700005F
:10086000948A00001348C0689B4901431148C16045
:1008700010488068AD4901430E4881600D484068CA
:10088000AB4901430B4841600A48406808490140B0
:100890000848416007488068A549014305488160D0
:1008A0000448806807218843024988607047000037
:1008B000FFF0FFFFE8030020DE48C068B0490143B5
:1008C000DC48C160DB488068AE490143D94881609B
:1008D000D8484068C0490143D6484160D54840687F
:1008E000D5490140D3484160D2488068BA490143A4
:1008F000D0488160CF48806807218843CD4988600F
:100900007047CC48C068B5490143CA48C160C9486E
:100910008068CA490143C7488160C6484068C849E1
:100920000143C4484160C3484068C3490140C148CD
:100930004160C0488068C2490143BE488160BD48EB
:10094000806807218843BB4988607047B948C06800
:10095000E02109030143B748C160B6488068B9493E
:100960000143B4488160B34840689B490143B148A2
:100970004160B0484068B0490140AE484160AD4870
:10098000806895490143AB488160AA488068072187
:100990008843A84988607047A648C068AA490143AF
:1009A000A448C160A3488068A8490143A148816068
:1009B000A0484068A64901439E4841609D48406860
:1009C0009D4901409B4841609A488068A049014385
:1009D00098488160974880680721884395498860D6
:1009E00070470000FFFFF7FF9248C068BB49896865
:1009F00001439048C1608F488068C021C904014309
:100A00008C4881608B484068B54901438948416002
:100A10008848406888490140864841608548806828
:100A2000AF49014383488160824880680721884339
:100A3000804988607047000000020F007D48C06850
:100A4000E021C90201437B48C1607A4880687B4944
:100A500001437848816077484068F02109010143EB
:100A6000744841607348406873490140714841606F
:100A700070488068F021090101436E4881606D482B
:100A80008068072188436B49886070476948C0685F
:100A9000944901436748C16066488068C021C90421
:100AA000014364488160634840688F49014361485D
:100AB000416060484068604901405E4841605D486F
:100AC0008068894901435B4881605A4880680721F2
:100AD0008843584988607047000707005548C06838
:100AE000F021090301435348C16052488068E02166
:100AF000090501434F4881604E4840687B490143E6
:100B00004C4841604B4840684B490140494841606E
:100B10004848806875490143464881604548806877
:100B20000721884343498860704700000000070C94
:100B3000060500003F48C0686D4901433D48C1605B
:100B40003C4880686B4901433A48816039484068B5
:100B5000B44901433748416036484068364901404E
:100B60003448416033488068AE4901433148816070
:100B700030488068072188432E498860704700000C
:100B800000060E000000050E2A48C068C021C902F8
:100B900001432848C16027488068E021C904014317
:100BA0002448816023484068254901432148416029
:100BB00020484068204901401E4841601D48806827
:100BC0001F4901431B4881601A48806807218843F8
:100BD0001849886070470000070C000000050F00EE
:100BE0001448C068C021C90201431248C1601148BD
:100BF0008068E021C90401430E4881600D484068C7
:100C0000E021C90001430B4841600A4840680A4995
:100C100001400848416007488068E021C90001435D
:100C2000044881600348806807218843014988603F
:100C300070470000E8030020FFF0FFFF00000207FC
:100C4000060B00000000020F00020700000007076B
:100C50000507000080B5FFF721FD844800780128D2
:100C600013D039D3032816D012D3052825D015D395
:100C7000072819D015D3092822D018D30B2822D041
:100C800018D30D2825D021D326E0FFF7C1FD23E09E
:100C9000FFF7E8FD20E0FFF70FFE1DE0FFF731FE54
:100CA0001AE0FFF753FE17E0FFF776FE14E0FFF7B8
:100CB0009BFE11E0FFF7C2FE0EE0FFF7E7FE0BE040
:100CC000FFF70CFF08E0FFF735FF05E0FFF75CFFDB
:100CD00002E0FFF785FFFFE701BD0000948A0000F6
:100CE000040F0000000307000307000007070000CF
:100CF00000060B000000070C80B500206946087054
:100D0000FFF7CCFC59480078002814D0022818D0EE
:100D100012D304282ED019D3062853D066D308281E
:100D20005AD054D30A285CD065D30C2871D067D32D
:100D30000D286FD06FE06EE05948C07869460870A2
:100D400069E0574800796946087064E054480078C3
:100D5000012803D16020694608700AE050480078F5
:100D6000022803D1C0206946087002E000206946CD
:100D7000087050E04A488078694608702A488068C0
:100D800080210903014328488160454802214056DB
:100D9000002816D52448C0688021890001432248D4
:100DA000C16068460078401E694608706846007851
:100DB000C143684601706846007840B2FFF7A1FC65
:100DC0002EE028E03648007B6946087023E034486E
:100DD000407B694608701EE032480078694608701A
:100DE00019E03148C0786946087014E02C48407812
:100DF000694608700FE02D480078694608700AE0DF
:100E00002748807969460870FFF77AFAFFF72CFBCC
:100E100001E000E0FFE76846007880B2FFF76AFC77
:100E200001BD0000070A0000E803002080B50F485C
:100E300000780B2810D11E480088002802D0FFF748
:100E400079FE08E0FFF75CFAFFF70EFB14488079A3
:100E500080B2FFF74FFC08E015480088002802D058
:100E6000FFF74AFF01E0FFF7F5FE01BD5F04002038
:100E700080B5104800688021890101430D48016058
:100E8000FFF769F901BD80B50A4800680A490140C9
:100E900008480160FFF74FF9FFF770F901BD000046
:100EA000C803002071040020B80300206204002061
:100EB00074000020880D0240FFDFFFFF30B4050002
:100EC0004D400122D20715404B180418240E2ED095
:100ED0001B0E32D0FF2C34D0FF2B3AD0E418000286
:100EE000090210431143000A090A9446C2B24A4358
:100EF000000AC3B24B43000A4843110A5B181A4365
:100F0000D2B2190A091801D44918641E080A7F3C94
:100F100023DBFE2C08DAE4050906114363469941F8
:100F20006041284330BC7047FF20C005F9E7280026
:100F30001B0EFF2BF6D1D043F4E72800FF2CF1D194
:100F4000F9E74002F7D1FF2B01D14902F3D1E005C7
:100F5000E7E7D8054902E4D0EDE743020020641C2E
:100F6000DFD15B129B1CDCD9D805DAE70122D2075E
:100F70000118090E7F3910D449421F310FD40018CF
:100F800005D2C0011043C84000D5D0437047C0010E
:100F90001043C84005D440427047002070470042CB
:100FA000F3D510007047FEE710B4010001226D4830
:100FB0000068802398430B00DBB2DB0180242340D0
:100FC0000343684803600020C0B210BC704710B5EE
:100FD000010001220800C0B20028022803D9001F26
:100FE00001D0801E0FD160480068604B03400800AC
:100FF000C0B24002E024240104401C435A4804606B
:101000000020C0B200E0042010BD10B50100012294
:101010000800C0B20028032803D9401F01D0801E59
:101020000FD151480068524B03400800C0B2800104
:10103000E024640004401C434B4804600020C0B21C
:1010400000E0042010BD10B5010001220800C0B26C
:10105000002801280ED844480068202398430B003C
:10106000DBB25B012024234003433F4803600020A0
:10107000C0B200E0042010BD10B50100012208003C
:10108000C0B2002803280ED89D4800681823984352
:101090000B00DBB2DB0018241C40044398480460BA
:1010A0000020C0B200E0042010BD10B501000122F4
:1010B0000800C0B2002803280ED891480068062313
:1010C00098430B00DBB25B0006241C4004438C48B1
:1010D00004600020C0B200E0042010BD30B5020062
:1010E00001231000C0B2002802D001280DD019E061
:1010F0001D4800680124A0430C00E4B22500ED0760
:10110000ED0F0543184805600EE0164800684024BE
:10111000A0430C00E4B2A40140252C400443114834
:10112000046001E0042001E00020C0B230BD10B531
:10113000010001220800C0B2002801280FD8094888
:101140000068704B03400800C0B2000280246400B5
:1011500020401843034B18600020C0B200E0042078
:1011600010BD0000045C0040005C0040FFF1FFFF88
:101170003FFEFFFF10B5020001239078292801DB14
:10118000042058E05078002801280AD9801E03D096
:10119000801E01D0801E0ED101200871FF208871B1
:1011A0000BE09078252801DB042044E00020087142
:1011B0000F20887101E004203DE0107800280AD05B
:1011C00001280DD0022810D0032813D0052816D0EE
:1011D000072820D02BE0FE2048718879887128E00C
:1011E000FC2048718879887123E0F820487188795B
:1011F00088711EE0F02048718879887119E0907834
:10120000272801DB042016E0F02048718879FC24AF
:1012100004408C710DE09078252801DB04200AE061
:10122000F02048718879F02404408C7101E004209A
:1012300001E01800C0B210BD10B40100012208681E
:101240005E4B186088795E4B186008795C4B1B68B0
:101250005C4C1C40000380235B0118402043584B2A
:1012600018604B791800C007C00F554B1B68254C00
:101270001C40000280235B0018402043504B186044
:101280004879022318404E4B1B684F4C1C404002CB
:1012900080239B0018402043494B18604879042361
:1012A0001840474B1B68234C1C4080028023DB0006
:1012B00018402043424B1860487908231840404B9F
:1012C0001B68424C1C40C00280231B011840204375
:1012D0003B4B18600020C0B210BC704700B5012124
:1012E00000203B4B00221000C0B2102804DA00207E
:1012F00018601B1D521CF6E70020C0B200BD0000A4
:10130000005C0040FFFEFFFF30B50200012300201B
:101310002F4C1500EDB2102D02DB0420C0B207E007
:101320001000C0B204256843241821600020C0B218
:1013300030BD0000FFFBFFFFF8B504000120694647
:1013400008702078FFF743FE694608706078FFF761
:101350005CFE69460870A078FFF775FE6946087064
:10136000E078FFF789FE07002079FFF79EFE050071
:101370006079FFF7DCFE0600A079FFF715FE6946ED
:10138000087068460078002801D0042015E0E07954
:1013900000280CD00F4800688021890001430D48C7
:1013A0000160012203211D2000F0FCF804E000226E
:1013B00003211D2000F0F6F80020F2BD0C5C004077
:1013C000105C0040FFEFFFFFFFFDFFFFFFF7FFFF97
:1013D000405C0040045C0040F446002804D44942CC
:1013E00000F013F8404260474042002905D45FD026
:1013F00000F00BF8404249426047494200F005F8CE
:101400004942604703460B43E6D40022030A8B425D
:101410000BD203098B4219D243088B422ED2411AB8
:1014200000D20146524110467047FF2209023FD0C8
:1014300012068B4205D3121209028B4201D31212FB
:10144000090203098B4219D300E0090AC3098B4240
:1014500001D3CB01C01A524183098B4201D38B01C6
:10146000C01A524143098B4201D34B01C01A524169
:1014700003098B4201D30B01C01A5241C3088B42AE
:1014800001D3CB00C01A524183088B4201D38B0099
:10149000C01A524143088B4201D34B00C01A52413B
:1014A000884200D3401A5241CFD2014610467047BD
:1014B00008B500F03BF908BD00B5010049B20029AC
:1014C00005D40121C206D20E9140314A116000BDFF
:1014D00000B5010049B2002905D40121C206D20E8F
:1014E00091402C4A116000BD00B5010049B20029AD
:1014F00005D40121C206D20E9140274A116000BDD9
:10150000F0B5020052B2002A1DD4244A03005BB297
:101510009B0804246343D258FF238407A40F0825A3
:101520006C43A3409A438B01DBB28407A40F0825C8
:101530006C43A3401343194A040064B2A408042571
:101540006C43135122E0164A03005BB21B071B0FCA
:10155000083B9D0804235D43114B040064B224073B
:10156000240F083CA408042674431B59FF24860753
:10157000B60F08277E43B440A3438C01E4B286072C
:10158000B60F08277E43B4401C435451F0BD000001
:1015900000E100E080E100E080E200E000E400E043
:1015A0001CED00E070B504000D001600200040B2F4
:1015B000FFF79AFF2900C9B2200040B2FFF7A0FF51
:1015C0003000C0B2012804D1200040B2FFF774FF00
:1015D00003E0200040B2FFF77BFF70BD80B5002024
:1015E000009000980028FCD001BD80B5002000F0DC
:1015F0009FF801BD80B5402000F09AF801BD80B58C
:10160000802000F095F801BD80B5C02000F090F872
:1016100001BD80B5002000BF00BF01BD80B5002026
:1016200000F0BFF901BD80B5012000F0BAF901BD9D
:1016300080B5002000F004FD01BD80B5012000F060
:10164000FFFC01BD80B5002000F0D8FD01BD80B5D4
:10165000012000F0D3FD01BD80B5002000BF00BF18
:1016600001BD80B5012000BF00BF01BD80B50020D5
:1016700000F0F2FD01BD80B5012000F0EDFD01BDDF
:1016800080B5022000F0E8FD01BD80B5002000F02B
:1016900023FE01BD80B5002000BF00BF01BD80B5A5
:1016A000042000BF00BF01BD80B5052000BF00BF02
:1016B00001BD80B5062000BF00BF01BD80B5002080
:1016C00000BF00BF01BD80B5002000F0ABFE01BD32
:1016D00080B5002000BF00BF01BD80B5002000F034
:1016E000B9FE01BD80B5002000BF00BF01BD80B5BF
:1016F000002000BF00BF01BD80B5012000BF00BFBA
:1017000001BD80B5002000BF00BF01BD80B5002035
:1017100000BF00BF01BD80B5002001F051F901BD3F
:1017200080B5002000BF00BF01BD00007047000071
:10173000F8B504002000C0B2002800D0C5E063481E
:10174000006801008907C90F002939D06048006886
:10175000022188435E4908605E48007801280ED166
:1017600001F0E2FC070001F069FD0C210C2001F002
:1017700083FD01F09BFD022056490870A5E0554805
:101780000078022800D0A0E001F03DFD01F086FCC9
:101790000500002630002900C0B2C9B2884207D235
:1017A00001F07CFC4C493200D2B28854761CF1E73F
:1017B00001F0BAFC01F033FD01204849087084E0D3
:1017C000424800680100C906C90F00293BD04448BF
:1017D000006800090100C907C90F68464170404808
:1017E000006840090100C907C90F684601703D48FB
:1017F000007800280ED16846407869460978C0B262
:10180000884203D003203749087015E0002035498D
:10181000087011E03348007802280DD168464078FE
:1018200069460978C0B2884203D104202D49087066
:1018300002E000202B4908702548006810218843E9
:101840002349086041E02148006801008906C90F6A
:1018500000293AD02248006800090100C907C90FD1
:10186000684641701E48006840090100C907C90F59
:10187000684601701B48007800280ED16846407801
:1018800069460978C0B2884203D002201549087021
:1018900015E000201349087011E012480078032871
:1018A0000DD16846407869460978C0B2884203D1B4
:1018B00005200C49087002E000200A49087004481D
:1018C00000682021884302490860F1BD000E0240F3
:1018D000100E02405D040020800300206B040020F5
:1018E000040D02406D04002070B5010000200023AB
:1018F00000221300DBB2022B13D20B00DBB2094C27
:101900001500EDB21C2675436459A34207D1054B5F
:101910001400E4B21C256C431B19180001E0521C92
:10192000E7E770BD3800002070B505000C00002608
:101930002800C0B2FFF7D8FF0100002901D1042020
:101940002EE02000C0B2002806D0022812D00AD310
:1019500004281DD015D322E0486840692022904316
:101960004A6850611BE048684069012290434A6818
:10197000506114E048684069022290434A6850610F
:101980000DE048684069102290434A68506106E0C3
:1019900048684069042290434A685061FFE700208C
:1019A00070BD70B5040000262000C0B2FFF79CFF98
:1019B0000500002D53D06868006901004907C90F70
:1019C00000290AD004212000C0B2FFF7ADFFE8686B
:1019D000002801D0E868804741E06868006901009C
:1019E000C906C90F00290AD003212000C0B2FFF7A1
:1019F0009BFFA869002801D0A86980472FE068688C
:101A0000006901008906C90F002909D000212000C2
:101A1000C0B2FFF789FF6869002801D06869804774
:101A200068680069C00709D501212000C0B2FFF72E
:101A30007BFF2869002801D0286980476868006911
:101A400001008907C90F002909D002212000C0B276
:101A5000FFF76AFFA868002801D0A868804770BD1A
:101A600000B5010049B2002905D40121C206D20EF9
:101A70009140784A116000BD00B5010049B20029CB
:101A800005D40121C206D20E9140734A116000BDF7
:101A900000B5010049B2002905D40121C206D20EC9
:101AA00091406E4A116000BDF0B5020052B2002AAA
:101AB0001DD46B4A03005BB29B0804246343D258D5
:101AC000FF238407A40F08256C43A3409A438B018E
:101AD000DBB28407A40F08256C43A3401343604A7C
:101AE000040064B2A40804256C43135122E05D4A4B
:101AF00003005BB21B071B0F083B9D0804235D43DB
:101B0000584B040064B22407240F083CA4080426A0
:101B100074431B59FF248607B60F08277E43B44041
:101B2000A3438C01E4B28607B60F08277E43B44076
:101B30001C435451F0BD70B5010000200023002269
:101B40001300DBB2022B13D20B00DBB2464C1500A4
:101B5000EDB21C2675436459A34207D1424B1400D1
:101B6000E4B21C256C431B19180001E0521CE7E786
:101B700070BD70B505000C0000262800C0B2FFF74C
:101B8000DAFF0100002901D104203FE02000C0B2AB
:101B900000280AD001280FD0032814D004281AD016
:101BA000052820D0062826D02DE04868406802226B
:101BB00002434868426028E04868406801220243C6
:101BC0004868426021E048684068802292030243EE
:101BD0004868426019E04868406880225203024326
:101BE0004868426011E048684068802292010243E0
:101BF0004868426009E04868406880225200024319
:101C00004868426001E0042000E0002070BD70B52B
:101C100005000C0000262800C0B2FFF78CFF010071
:101C2000002901D1042014E02000C0B200280328BC
:101C30000ED848684068564A02402000C0B2C00230
:101C4000C0235B010340134348684360002000E069
:101C5000042070BD00E100E080E100E080E200E0EF
:101C600000E400E01CED00E00000002070B505007D
:101C70000C0000262800C0B2FFF75DFF010000291C
:101C800001D104200CE048684068C0229043220043
:101C9000D2B29201C023134003434868436000203E
:101CA00070BD70B505000C0000262800C0B2FFF71B
:101CB00042FF0100002901D1042016E0002C13D0BE
:101CC00020784A68526820239A4340012023184014
:101CD00010434A6850602078012805D160784A682E
:101CE0009060A0784A68D060002070BD70B5050093
:101CF0000C0000262800C0B2FFF71DFF01000029DC
:101D000001D104200CE0486840680C229043220076
:101D1000D2B292000C231340034348684360002072
:101D200070BD70B505000C0000262800C0B2FFF79A
:101D300002FF01002000C0B2002802280ED8486827
:101D400040685A4A02402000C0B28003C0231B02F0
:101D50000340134348684360002000E0042070BD46
:101D600070B505000C0000262800C0B2FFF7E3FEA6
:101D70000100486842684E4810402200D2B2520228
:101D8000C023DB001340034348684360002070BD5C
:101D9000FFE7FFFFF1B582B00C0000250020694687
:101DA000088000266846007AFFF7C5FE07007868BD
:101DB0004068400A8107890F0800C0B2032801D19A
:101DC000002020E02079002801D100201BE02079AC
:101DD000012802D0207903280BD101250420401AC4
:101DE00085402068A1682A00D2B25143FFF70DFB5D
:101DF00008E001250520401A854020682900C9B265
:101E0000FFF703FB80B2FEBD70B505000C00002695
:101E10002800C0B2FFF78FFE0100200080B24A68A0
:101E20009061002070BD70B505000C0000262800F0
:101E3000C0B2FFF780FE0100002901D1042034E088
:101E40002000C0B20028012806D9C01E0BD0401EB9
:101E500011D0401E17D025E0486840681022024388
:101E60004868426020E0486840688022920202434D
:101E70004868426018E04868406880225202024385
:101E80004868426010E048684068802212030243BC
:101E900048684260486840688022D202024348682D
:101EA000426001E0042000E0002070BDFF3FFFFF22
:101EB000FFF9FFFFF8B504000F0000250026200001
:101EC000C0B2FFF738FE0100002901D1042040E034
:101ED0003800C0B2002809D0022815D00DD304283C
:101EE00020D018D306282BD023D330E048680069CF
:101EF00002005206D20F150029E04868006902006E
:101F0000D207D20F150022E048680069020092074C
:101F1000D20F15001BE0486800690200D206D20FFC
:101F2000150014E04868006902005207D20F15003E
:101F30000DE04868006902009206D20F150006E025
:101F40004868006902001207D20F1500FFE7280059
:101F5000C0B2F2BD70B505000C0000262800C0B26A
:101F6000FFF7E9FD0100002901D104202EE0200047
:101F7000C0B2002806D0022812D00AD304281DD0EF
:101F800015D322E048684069202290434A68506196
:101F90001BE048684069012290434A68506114E0A0
:101FA00048684069022290434A6850610DE04868E1
:101FB0004069102290434A68506106E048684069D1
:101FC000042290434A685061FFE7002070BDF8B5D5
:101FD00004000F0000262000C0B2FFF7ACFD050092
:101FE000002D01D104201AE002212000C0B2FFF729
:101FF000B1FF68680068FF2188433900C9B2014316
:102000006868016002212000C0B2FFF753FF00287A
:10201000F8D002212000C0B2FFF79CFF0020F2BDE3
:1020200038B5040000252000C0B2FFF784FD010090
:10203000002901D1042002E048680068C0B232BD26
:1020400070B5040000262000C0B2FFF774FD050043
:10205000002D53D06868006901004907C90F0029A5
:102060000AD004212000C0B2FFF774FFE8680028FE
:1020700001D0E868804741E0686800690100C9064E
:10208000C90F00290AD003212000C0B2FFF762FF68
:10209000A869002801D0A86980472FE06868006916
:1020A00001008906C90F002909D000212000C0B213
:1020B000FFF750FF6869002801D0686980476868A9
:1020C0000069C00709D501212000C0B2FFF742FF17
:1020D0002869002801D028698047686800690100E4
:1020E0008907C90F002909D002212000C0B2FFF7DB
:1020F00031FFA868002801D0A868804770BD38B5B6
:1021000005002C000834200040B2FFF7C1FC00217C
:10211000200040B2FFF7C8FC200040B2FFF7A0FC4F
:1021200031BD38B505002C000834200040B2FFF75F
:10213000AFFC0321200040B2FFF7B6FC200040B204
:10214000FFF79AFC31BDF8B504000D000120694687
:10215000087000272000C0B2FFF7EDFC0600002E3B
:1021600001D1042048E0002D01D1042044E068683A
:1021700000280BD0686841782000C0B2FFF747FD07
:10218000686801782000C0B2FFF7EAFD29782000D6
:10219000C0B2FFF76BFD69460870297A2000C0B213
:1021A000FFF7BFFD0700E868002805D0E9682000B8
:1021B000C0B2FFF776FD0700286900280ED0286915
:1021C0004068F06028698068306128690068B06004
:1021D0002869C068706128690069B061287D01289C
:1021E00004D12000C0B2FFF78AFF03E02000C0B294
:1021F000FFF797FF0020C0B2F2BD000010B5040049
:102200002000C0B2002807D10748006800280AD083
:1022100005480068804706E004480068002802D0AE
:1022200002480068804710BD2C04002030040020C4
:1022300000B50200D2B2002A04D10A00D2B2044B87
:102240001A6003E00A00D2B2024B1A6000BD00001F
:10225000040800400448004010B504002000C0B24B
:10226000002803D0022811D008D317E00C480068DA
:10227000002802D00A48006880470FE0094800683B
:10228000002802D007480068804707E00648006839
:10229000002802D0044800688047FFE710BD000016
:1022A0001C04002020040020240400200100002041
:1022B00001228A40D343074A1360C0B2704700200E
:1022C0000D4909688022D2000A430B490A60C0B256
:1022D000704700001458004010B504002000C0B240
:1022E000002807D146480068002802D0444800680A
:1022F0008047FFE710BD00000C58004010B40100FB
:1023000000200A783C4B1B683A4C1C401203C02347
:102310009B0113402343384A13604A78364B1B68AD
:10232000364C1C40520280239B001A402243324B01
:102330001A608A78304B1B68324C1C401202802392
:102340005B001A4022432C4B1A60CA782A4B1B6848
:102350007024A3431201702414401C43264A1460C5
:102360000A79254B1B680824A343D2000824224085
:102370001A43214B1A604A791F4B1B680424A3435C
:102380009200042422401A431B4B1A608A791A4B8C
:102390001B680224A3435200022422401A43164B16
:1023A0001A608A68164B1A60C0B210BC70470020D1
:1023B0001149096801220A430F490A60C0B27047F7
:1023C00001000020104A1268120C12040B009BB28C
:1023D0001A430D4B1A60C0B27047010000200B4A2F
:1023E0001268120C12040B009BB21A43074B1A60BE
:1023F000C0B27047FFCFFFFF0C580040FFFDFFFF4A
:1024000034040020FFFEFFFF045800400058004045
:1024100001211E200E4A1060E1200D4A10600020AC
:10242000C0B2704780B50848006801000906C90FAE
:10243000002908D0FFF7ECFF04480068002802D00C
:1024400002480068804701BD840F00403804002026
:10245000800F004010B504005A48006801000907C9
:10246000C90F00290CD058488068002802D056486F
:1024700080688047554800680821884353490860B0
:102480005048006801004907C90F00290CD04E4888
:10249000C068002802D04C48C06880474B4800689C
:1024A00004218843494908604648006801008907BB
:1024B000C90F00290CD044480069002802D04248C6
:1024C0000069804741480068022188433F4908600D
:1024D0003C480068C0070CD53B484069002802D042
:1024E00039484069804739480068012188433749A5
:1024F0000860344800680100C906C90F00290CD0E3
:1025000031484068002802D02F48406880472F4853
:102510000068102188432D4908602A48006801009E
:102520008906C90F00290CD027480068002802D06E
:1025300025480068804725480068202188432349B2
:10254000086010BD00B54279012A05D14A69002A08
:1025500002D04A691C4B5A610278012A05D10A68E7
:10256000002A02D00A68184B1A604278012A05D165
:102570004A68002A02D04A68134B5A608278012ABE
:1025800005D18A68002A02D08A680F4B9A60C27807
:10259000012A05D1CA68002A02D0CA680A4BDA604B
:1025A0000279012A05D10A69002A02D00A69064B7C
:1025B0001A6100BD35480068802109020143334893
:1025C00001607047B0240040A0030020B424004004
:1025D00000B50100002901D1042041E048782B4AD0
:1025E00012680C239A4380000C23034013432748AE
:1025F00003608878254A1268254B13400003C022E7
:10260000920102401A4321480260C8781F4A1268AA
:10261000204B13404002C022D20002401A431B4804
:1026200002600879194A12681B4B1340C0028022CD
:10263000120110401843154A1060384800680C4ACF
:10264000024036480260354800680E4A024033486E
:102650000260324800680C4A0240304802600020A4
:1026600000BD2F480068012101432D4801607047DB
:10267000FFBFFFFF054800680121014303480160D7
:1026800070470000FFDFFFFFFFEFFFFF0424004063
:10269000FFCFFFFFFFF9FFFFFFF7FFFF30B503009C
:1026A000002B01D1042038E018781C4C24681D4D03
:1026B000254080028024E40020402843174C2060FD
:1026C00016480068184C0440144804601348006819
:1026D000164C04401000C0B2C00280252D012840D5
:1026E00020430E4C20601000C0B2002806D00B48DA
:1026F0000068802424020443084804608D48006870
:102700008D4C04400800C0B2401E0005F0252D0489
:102710000540254387480560002030BD082400405F
:10272000C4240040FFFBFFFFFF7FFFFFFFF7FFFF19
:1027300010B502001000C0B200281FD0022837D008
:1027400028D3042850D041D3062869D05AD308286A
:1027500000D17FE070D30A2800D197E000D287E053
:102760000C2800D1AEE000D29EE00E2800D1C3E0DC
:1027700000D2B3E00F2800D1CCE0D9E06F48006868
:102780001F2398430B00DBB2DB06DB0E03436B48D1
:102790000360CDE069480068744B03400800C0B294
:1027A0004001F824A40004401C4364480460BFE0D6
:1027B000624800686E4B03400800C0B28002F824F3
:1027C000E40104401C435D480460B1E05B480068DC
:1027D000684B03400800C0B2C003F824240304403F
:1027E0001C4356480460A3E054480068624B034011
:1027F0000800C0B20005F824640404401C434F489C
:10280000046095E04D480068634B03400800C0B287
:102810004006F824A40504401C434848046087E0AF
:10282000624800681F2398430B00DBB2DB06DB0E17
:1028300003435E4803607BE05C4800684B4B034009
:102840000800C0B24001F824A40004401C435748CB
:1028500004606DE055480068454B03400800C0B275
:102860008002F824E40104401C43504804605FE007
:102870004E4800683F4B03400800C0B2C003F82434
:10288000240304401C434948046051E04748006861
:10289000394B03400800C0B20005F824640404402A
:1028A0001C434248046043E0404800683A4B034000
:1028B0000800C0B24006F824A40504401C433B486D
:1028C000046035E01B4800681F2398430B00DBB20F
:1028D000DB06DB0E03431748036029E01548006858
:1028E000224B03400800C0B24001F824A400044079
:1028F0001C43104804601BE00E4800681C4B03405A
:102900000800C0B28002F824E40104401C430948D6
:1029100004600DE007480068164B03400800C0B291
:10292000C003F824240304401C4302480460FFE76A
:10293000002010BD48240040FFFF0FFF402400404E
:1029400010B502001B4B002A01D104200CE0080046
:10295000C0B2102801DB042006E00800C0B2042445
:10296000604318581080002010BD00001FFCFFFFBE
:10297000FF83FFFFFF7FF0FFFFFF0FFE00B50100A9
:10298000002901D1042005E00B4800680003000B7A
:102990000860002000BD0000FFFFFFC10448006880
:1029A000064901400248016070470000442400408D
:1029B0000824004050240040A4240040FF7FFFFF73
:1029C00010B504004C480068002802D04A4800684E
:1029D000804710BD00B5010000220800C0B20028E9
:1029E00007D001280BD1454803681800C007C00F65
:1029F00006E04248036818008007C00F00E000208E
:102A0000C0B200BD00B5010001220800C0B200281C
:102A100019D001282FD13A480068000C0004394B26
:102A200003433748036036480068000C0004364B07
:102A30000343334803603548006801239843334B10
:102A40001860002018E02E480068000C00042D4B90
:102A500003432B4803602A480068000C00042A4BFB
:102A60000343274803602948006802239843274B03
:102A70001860002000E00120C0B200BD00B50100D8
:102A800001220800C0B2002802D0012818D02FE08F
:102A90001B480068000C00041A4B034318480360ED
:102AA00017480068000C0004174B034314480360E8
:102AB000D348006840239843D14B1860002018E0A9
:102AC0000F480068000C00040E4B03430C480360E1
:102AD0000B480068000C00040B4B034308480360DC
:102AE000C748006820239843C54B1860002000E0C9
:102AF0000120C0B200BD00002804002024000240D4
:102B00002C0002405A5A0000A5A5000028000240EF
:102B100070B5030000240800C0B2012816D00800D8
:102B2000C0B2022812D00800C0B204280ED008009B
:102B3000C0B206280AD00800C0B2082806D0080093
:102B4000C0B20C2802D00420C0B258E1AD480068E1
:102B5000000C0004AC4D0543AA480560A948006874
:102B6000000C0004A94D0543A6480560A44805686B
:102B7000A74828401500EDB26D028026B60035400A
:102B800005439F4805609F480068000C00049E4D67
:102B900005439C4805609B480068000C00049B4D61
:102BA0000543984805609B480068400A40020D00B4
:102BB000EDB220267543ED05ED0D05439548056002
:102BC00090480068000C00048F4D05438D48056057
:102BD0008C480068000C00048C4D05438948056052
:102BE0008D480068FF25A8430D00EDB217267543F8
:102BF000EDB205438848056082480068000C000477
:102C0000814D05437F4805607E480068000C000444
:102C10007E4D05437B48056080480068400A4002BD
:102C20000D00EDB21B267543ED05ED0D05437B4808
:102C3000056074480068000C0004734D054371483A
:102C4000056070480068000C0004704D05436D4835
:102C5000056073480068800C80040D00EDB2714E71
:102C60007543AD03AD0B05436D48056065480068CD
:102C7000000C0004644D054362480560614800682B
:102C8000000C0004614D05435E480560664800681D
:102C9000400D40050D00EDB2644E7543ED02ED0AA6
:102CA00005436148056057480068000C0004564D14
:102CB00005435448056053480068000C0004534D18
:102CC0000543504805605A480068000B00030D009A
:102CD000EDB2182675432D052D0D054354480560AA
:102CE00048480068000C0004474D0543454805600E
:102CF00044480068000C0004444D05434148056009
:102D00004C480068000B00030D00EDB2F02675433F
:102D10002D052D0D0543474805603A480068000C15
:102D20000004394D05433748056036480068000CFB
:102D30000004364D0543334805603F480068400BAA
:102D400040030D00EDB2FA26B6007543ED04ED0C1C
:102D50000543394805600800C0B2082818D1294841
:102D60000068000C0004284D0543264805602548EE
:102D70000068000C0004254D0543224805602048EA
:102D800000680C25A843042505431D48056032E072
:102D90000800C0B20C2818D11A480068000C0004C2
:102DA000194D05431748056016480068000C0004DB
:102DB000164D054313480560114800680C25A843CB
:102DC000082505430E48056015E00E480068000C14
:102DD00000040D4D05430B4805600A480068000CCF
:102DE00000040A4D054307480560054800680C25A6
:102DF000A843034D2860404803602000C0B270BD66
:102E0000200002402C0002405A5A0000A5A50000F4
:102E1000FFFDFFFF000002400400024008000240E6
:102E20000C0002405046000010000240E022020068
:102E300014000240180002401C00024000B50100CE
:102E4000002280204002814202D30420C0B250E020
:102E50002A480068000C0004294B034327480360FC
:102E600026480068000C0004264B034323480360F7
:102E70000020C043244B1860244800680300DB0690
:102E8000DB0F002BF8D11D480068000C00041C4B20
:102E900003431A48036019480068000C0004194BEA
:102EA000034316480360194800680323984302232C
:102EB00003431648036000200870144800680300AC
:102EC000DB06DB0F002BF8D10C480068000C000477
:102ED0000B4B03430948036008480068000C0004DA
:102EE000084B0343054803600020074B186010009F
:102EF000C0B200BD00000000280400202C000240E9
:102F00005A5A0000A5A500003000024020000240EF
:102F100000B501000020204A126880231B061343DD
:102F20001D4A1360184A1268120C1204174B1343FF
:102F3000154A1360144A1268120C1204144B1343FE
:102F4000114A13600A00D2B2002A06D1114A12684F
:102F50000C239A430F4B1A6014E00A00D2B2012AE4
:102F600008D10C4A12680C239A4304231343094ADC
:102F7000136007E0074A12680C239A43082313439F
:102F8000044A1360C0B200BD2C0002405A5A00002F
:102F9000A5A50000200002402020004038B50C000C
:102FA00045066D0E5D4800688021490101435B487C
:102FB00001605B480068012101435948016057489E
:102FC0000068584901405548016055480068012192
:102FD00088435349086000210120FFF729F90220A6
:102FE00000F0AFF92800C0B200F0CEF92000C0B266
:102FF00000F0CAF9022000F0A4F901210120FFF736
:1030000017F946480068802149010143434801609F
:1030100043480068012101434148016031BD70B55A
:103020000024802606433D48006880214901014371
:103030003A4801603A48006801210143384801607C
:103040003648006837490140344801603448006818
:10305000012188433249086000210120FFF7E8F888
:10306000022000F06EF93000C0B200F08DF900F0DF
:10307000BFF9050001210120FFF7DAF827480068B1
:10308000802149010143254801602548006801214C
:103090000143234801602800C0B270BD38B5002448
:1030A0001E4800681F4901401C4801601B48006819
:1030B0008021490101431948016019480068012134
:1030C000014317480160154800685B4901401348F7
:1030D000016000210120FFF7ABF8022000F031F978
:1030E00000F086F90500042000F02BF901210120F1
:1030F000FFF79EF80948006880214901014307480D
:103100000160074800680121014305480160022071
:1031100000F017F92800C0B232BD0000480D02408F
:10312000080D0240FFDFFFFFF8B500240026002550
:103130006D20FFF774FF0700380602D52000202419
:103140000443F80605D52000102404432800102568
:103150000543380705D52000082404432800082526
:103160000543780705D520000424044328000425DE
:103170000543B80705D52000022404432800022592
:103180000543F80705D52000012404432800012544
:103190000543780602D5200001240443B80602D571
:1031A0002000012404432100C9B26B20FFF7F6FE82
:1031B0006A20FFF734FF6946087068460078000708
:1031C00005D530000426064328002025054368461F
:1031D0000078800605D530000226064328008025A9
:1031E000054368460078C00605D530000126064331
:1031F0002800402505433100C9B26A20FFF7CEFE02
:103200002800C0B2F2BD10B56920FFF708FFFA240C
:1032100004402100C9B26920FFF7C0FE10BD10B5FF
:103220006E20FFF7FCFE040003216C20FFF7B6FEC2
:103230002000C0B210BD0000FFEFFFFF38B5022133
:103240006020FFF7ABFE00252800C0B232280BDA61
:103250006120FFF7E4FE0007000F04002000C0B269
:10326000022801D06D1CEFE72800C0B2322801DB34
:10327000002000E0012032BDF8B507000E006620F6
:10328000FFF7CDFEE024044039002143C9B2662097
:10329000FFF784FE6720FFF7C2FEE02505403100FE
:1032A0002943C9B26720FFF779FEF1BD70B504214B
:1032B0006020FFF773FE00252800C0B232280BDA29
:1032C0006120FFF7ACFE0007000F04002000C0B231
:1032D000032801D06D1CEFE72800C0B2322801DBC3
:1032E00000201FE008216020FFF758FE0026300074
:1032F000C0B232280FDA9620400000F022F8612098
:10330000FFF78DFE0007000F04002000C0B2052863
:1033100001D0761CEBE73000C0B2322801DB002080
:1033200000E0012070BD000000B50200002A07D0B7
:103330000B00591E002B03D000231370521CF7E71B
:1033400000BD00B500210200501E92B2002A07D035
:10335000022211000A00511E92B2002AFAD1F2E7AD
:1033600000BD00B500210200501E92B2002A07D015
:10337000044A11000A00511E92B2002AFAD1F2E763
:1033800000BD00006E0F000038B50400354800682D
:10339000334901403348016000252800C0B20828A5
:1033A00025DA200607D52C48006880210902014350
:1033B0002948016005E0284800682949014026485D
:1033C00001600220FFF7BDFF2348006880218901CA
:1033D00001432148016064000120FFF7B2FF1E484D
:1033E00000681E4901401C4801606D1CD5E731BDD5
:1033F00038B51C4800688021090201431948016062
:10340000154800681549014013480160002528004F
:10341000C0B208281CDA64000F48006880218901C6
:1034200001430D4801600220FFF78BFF0F21402070
:1034300000F0E4F8002800D0641C07480068074941
:103440000140054801600120FFF77BFF6D1CDEE7AE
:103450002000C0B232BD0000480D0240FFDFFFFF78
:10346000FF7FFFFF400D024030B503001800C0B2DF
:103470000C00E4B2A4000019764C0019002404608A
:10348000107801280DD11800C0B2734C00190068E3
:1034900001248C4004431800C0B26F4D40190460F1
:1034A0000CE01800C0B26C4C0019006801248C407C
:1034B000A0431C00E4B2684D6419206050780028D5
:1034C0000DD11800C0B2654C0019006801248C4071
:1034D000A0431C00E4B2614D641920600CE01800A8
:1034E000C0B25E4C0019006801248C4004431800EF
:1034F000C0B25A4D40190460907801281AD11800C2
:10350000C0B2574C0019006801248C4004431800D5
:10351000C0B2534D401904601800C0B2514C00199C
:10352000006801248C40A0431C00E4B24D4D641996
:10353000206037E0907802281AD11800C0B2484CB9
:103540000019006801248C40A0431C00E4B2444DE3
:10355000641920601800C0B2424C001900680124B0
:103560008C4004431800C0B23E4D4019046019E07D
:103570001800C0B23A4C0019006801248C40A043E6
:103580001C00E4B2364D641920601800C0B2354CFE
:103590000019006801248C40A0431C00E4B2314DA6
:1035A00064192060D07800280DD11800C0B27A4C80
:1035B0000019006801248C40A0431C00E4B2764D41
:1035C000641920600CE01800C0B2734C0019006848
:1035D00001248C4004431800C0B26F4D40190460B0
:1035E0001079784C2468764D2540C003802424024D
:1035F00020402843734C2060002030BDC0B2724A86
:1036000080180268CA401000C007C00F704710B48D
:1036100002001000C0B26D4BC018006801238B403F
:1036200003431000C0B2694C00190360002010BCB5
:10363000704710B403001800C0B20C00E4B2A4003C
:103640000019044C00191400E4B20460002010BCFE
:1036500070470000000C0240000D02401C0D0240AB
:10366000200D0240240D024070B50400D0071ED585
:103670001800C0B200280DD02000C0B2544D40192F
:1036800005680120884028432500EDB2504EAD1951
:1036900028600CE02000C0B24D4D401900680125A3
:1036A0008D40A8432500EDB2494EAD192860900722
:1036B0001ED51800C0B200280DD02000C0B2454D64
:1036C000401905680120884028432500EDB2414E8D
:1036D000AD1928600CE02000C0B23E4D40190068D2
:1036E00001258D40A8432500EDB23A4EAD19286062
:1036F00050071ED51800C0B200280DD02000C0B25F
:10370000354D401905680120884028432500EDB259
:10371000314EAD1928600CE02000C0B22E4D40198A
:10372000006801258D40A8432500EDB22A4EAD1951
:10373000286010071ED51800C0B200280DD0200048
:10374000C0B2264D40190568012088402843250055
:10375000EDB2224EAD1928600CE02000C0B21F4D22
:103760004019006801258D40A8432500EDB21B4E8D
:10377000AD192860002070BD70B506000D00140062
:1037800001232200D2B22900C9B23000C0B2FFF733
:103790006BFF002070BD00002C0D024010B4020031
:1037A0001000C0B20E4BC018006801238B40984334
:1037B0001300DBB20A4C1B191860002010BC7047C4
:1037C000FF7FFFFF080F0240040D02400C0D024076
:1037D000300D0240340D0240380D02403C0D0240D5
:1037E000100E024000B57F490978012936D17E4983
:1037F000C97B4907490F022906D17B49C97BF822B9
:103800000A407949CA7309E07749C97BF8220A401E
:10381000491C4907490F1143734AD1737249C97B47
:103820004907490F022915D16F49C97BC9B2C90897
:103830008907890F002907D16B49C97BE7220A4014
:1038400008211143684AD1736749C97BDF220A40C6
:103850006549CA731421944A1170FFE700BD00B591
:103860006049C978012900D095E05F49C97B4907C3
:10387000490F022933D15C49C97BDF220A405A49EA
:10388000CA735949C97BC9B2C9088907890F032975
:1038900008D15549C97BE7220A4008211143524A01
:1038A000D1730CE05049C97BE7220A40C9B2C9086C
:1038B000491CC90018230B4013434B49CB734A4999
:1038C000497B00290AD04849C97BC9B2C908890780
:1038D000890F012902D10121744A11705BE042492C
:1038E000C97BC9B249090A00D207D20F002A0ED0FB
:1038F0003D49C97BDF220A403B49CA733A49C97B2B
:10390000E7220A403849CA730021684A11703649D3
:10391000C97BC9B2C9088907890F03290CD132496B
:10392000C97BE7220A403049CA732F49C97B20224C
:103930000A432D49CA732BE02B49C97BC9B2C90878
:103940008907890F032923DA58490978002903D008
:103950000021564A11701BE02349C97BE7220A4027
:10396000C9B2C908491CC90018230B4013431E499A
:10397000CB731D49497B00290AD01B49C97BC9B2B9
:10398000C9088907890F012902D10121474A11700D
:103990001421454A117000BD00B5124989790129E9
:1039A0001FD185490978022903D10021824A11706B
:1039B00004E081490978491C7F4A117014217F4A2B
:1039C00011807D490978022904D17C490988490080
:1039D0007A4A11807A490978002902D10421784A6B
:1039E000117000BDF8030020C803002000B5754920
:1039F000497A012957D174490978002939D0734986
:103A0000C97B734A11700121724A11706F49C97BD9
:103A10004906490E6D4AD1736C49C97BE7220A40B9
:103A200008211143694AD1736849C97BBF220A4002
:103A30006649CA730021684A11700021674A1180E3
:103A40000021614A11700021654A11800021654AF8
:103A500011700021584A11700021584A118000212C
:103A6000614A11700121614A11800121604A11806F
:103A700016E058490978002906D00021554A1170EE
:103A800053490978514AD1735049C97B80220A436E
:103A90004E49CA7301214C4A117001214E4A1170DE
:103AA0001421014A117000BD800000207004002024
:103AB00080B550480078002824D04F480078022173
:103AC000FDF7A0FC002906D14C4800684C49014094
:103AD0004A48016006E049480068802189010143A5
:103AE0004648016044480078401C434908704248F9
:103AF0000078062805DB00203E49087000203E497A
:103B0000087058E03148C07BC0B2C009C0B200287C
:103B100005D12D480078002801D1FDF7B4F92A48D5
:103B20000078002803D001203649087002E0002008
:103B3000344908702A480088002808D164202849A0
:103B4000088000202049087000202E4908702E4867
:103B50000078002805D001202A49087064202049F7
:103B6000088028480078012819D11D4800880028BD
:103B700009D01B4800882549884204DA1848008883
:103B8000401E174908800D480088002804D00B48C3
:103B90000088401E09490880FDF76AF904E06420A6
:103BA0000F490880FDF76FF904480088002802D10A
:103BB00000200149087001BD6C0400207400002041
:103BC00073040020F80300207E000020C8030020BA
:103BD000690400206A0400207F0000204A040020BD
:103BE000480400206D0400206F04002078000020AD
:103BF000760000206104002077040020880D024038
:103C0000FFDFFFFF780400205F040020C4090000EC
:103C100080B5002069464870032069460870B9489D
:103C2000807800281BD0B748C07A002817D0B64843
:103C30000078002800D0B1E10020B4490880B448E1
:103C4000C078B44908700120AF4908700120B2491A
:103C500008700120B14908700020B1490870AA48D5
:103C60000078002800D199E1A8480088401CA749A5
:103C70000880A6480088142800DA8FE1A34800884D
:103C80000421FDF7BFFB002900D087E19D48407962
:103C9000002877D09B488078002803D19948007A83
:103CA000002800D07AE19748C0782D2800DB75E124
:103CB0009448C078292804DA9248C078052800DBA7
:103CC0006CE10020B64908808F4800780D2805DA9D
:103CD0008D480078401C8C49087006E08A480078BE
:103CE0000D2802D1012088490870AE4800780028CC
:103CF00006D1854800780A2802D10120824908703F
:103D0000814800780B2820D11420A5490880012083
:103D1000A54908700020A5490870A548C07B400649
:103D2000400EA349C873A248C07BF8210140A048B7
:103D3000C1739F48C07BE7210140082008439C498C
:103D4000C87310209A49887128E16F4800780C28C0
:103D500006D10020944908700120964908701DE1A1
:103D6000694800780D2806D100208F49087001208D
:103D70009049087012E100208B49087000208D499D
:103D800008700BE15F488078002800D1ACE05D4806
:103D90004079002800D001E15A480078052800DB6E
:103DA000FCE059480078002857D057480078082888
:103DB00053DA5B480078002800D0EFE00120584932
:103DC00008705348807A7A49097888420BD078483D
:103DD00000784F498872012077490870744800784C
:103DE00000F004FB02E00020734908707048C078BE
:103DF000474948706E480079454988706C4800789A
:103E0000434988726A4840784149C8726848807856
:103E10003F4908736648007B3D4948736448407BCE
:103E20003B49887362480079644908706048C078EB
:103E30000621484362494018624908805C48C078BE
:103E40000321484360494018604908800F223049E7
:103E5000FE20000200F041FDA0E02B480078082879
:103E60001CD12F480078002800D097E001202C4971
:103E7000087057480078012802D100F04AFE8DE012
:103E800053480078002800D088E000F042FEFA2075
:103E90008000FFF766FA00F04AFE7FE01A480078DB
:103EA000092807D101204B4908704B48007800F0E1
:103EB00049FD73E0144800780B286FD01248007851
:103EC0000C2806D101203949087000209F4908704C
:103ED00064E00D4800780D2860D100203349087057
:103EE00001209A49087059E00648C07A002855D048
:103EF00004488078002803D10248007A002811D0B5
:103F00004CE000BFF80300205F0400204E040020B6
:103F1000B8030020790400207F0000207E000020EC
:103F2000610400208A48407A052837DA0020894950
:103F300008800020884908701D48C07B802101430B
:103F40001B48C1731A48C07BF82101401848C1734F
:103F50001748C07BE7210140082008431449C87373
:103F600019201349887101201B49087000200E494F
:103F700008700020794908700120794908700C48C0
:103F8000007B0A214143774801800120764908706F
:103F90000748007B0A2141437448018001BD0000AD
:103FA000740000205E0400206404002066040020E9
:103FB000C80300206504002060040020D80300200E
:103FC000CA0700007A000020CD0700007C00002016
:103FD00071040020630400206204002000B55F48E3
:103FE0000078002819D0022831D026D3042848D0E0
:103FF00037D3062864D04FD308287AD06DD30A2847
:1040000000D18AE000D28EE00C2800D19AE000D2E4
:1040100097E00D2800D196E096E0554880791E285B
:1040200007DA53488079401C51498871142051495E
:1040300008700120AB49087086E04D48C0786328BD
:1040400004DA4B48C078401C4949C8707CE04848B5
:104050000079632804DA46480079401C4449087115
:1040600072E043480078022803D1012040490870DB
:1040700006E03F480078012802D102203C49087040
:1040800062E03B48022140567F2804D038488078BF
:10409000401C3749887057E035484078022803D1E2
:1040A0000420334948700AE031484078042803D19D
:1040B00002202F49487002E002202D49487043E059
:1040C0002B48007B401C2A4908732948007B05289F
:1040D00002DA05202649087336E02548407B00288F
:1040E00003D000202249487302E001202049487390
:1040F0002AE07D480078012803D100207A49087021
:104100000AE079480078012803D100207649087038
:1041100002E001207449087016E07448C078401C21
:104120007249C87010E072480078062803D1012057
:104130006F49087004E06E480078401C6C490870B4
:1041400002E001E000E0FFE700BD0000670400209E
:10415000F80300204E040020790400205F040020B2
:104160007E000020480400207F0000204A04002038
:10417000C80300208000002000B55E4800780028B9
:1041800019D0022831D026D3042848D037D30628A6
:1041900062D051D3082878D06BD30A2800D188E0A8
:1041A00000D28CE00C2800D198E000D295E00D28D8
:1041B00000D194E094E050488079112807DB4E4804
:1041C0008079401E4C49887114204C4908700120A8
:1041D0004449087084E04848C078022804DB464817
:1041E000C078401E4449C8707AE0434800790228EC
:1041F00004DB41480079401E3F49087170E03E48A9
:104200000078022803D101203B49087006E03A48B3
:104210000078012802D102203749087060E0364852
:10422000022140567F21C943884204D03248807819
:10423000401E3149887053E02F484078022803D14E
:1042400004202D49487006E02B484078042802D10C
:1042500002202949487043E02748007B401E264938
:1042600008732548007B052802DAFF2022490873DD
:1042700036E02148407B002803D000201E494873C7
:1042800002E001201C4948732AE017480078012801
:1042900003D10020144908700AE01348007801286F
:1042A00003D100201049087002E001200E49087077
:1042B00016E00E48C078401E0C49C87010E00C484B
:1042C0000078012803D106200949087004E0084855
:1042D0000078401E0649087002E001E000E0FFE7B8
:1042E00000BD00006C04002071040020B803002011
:1042F000620400205F040020C8030020800000202A
:1043000070B506000C00D448006880218900014384
:10431000D148016000252800210080B289B288427E
:1043200007D2280080B2315C0020FDF750FE6D1CE2
:10433000F1E7C948006872490140C748016070BD93
:1043400010B50120C5490870C5480068000C00047C
:10435000C4490143C2480160FE20C3490860C34804
:10436000006801210143C1480160C14800785B2811
:1043700003DB0020BE4908700BE0BD480478200034
:10438000401CBB4908700020FDF74AFEB949E4B261
:10439000085510BD704770477047E0B50521684665
:1043A000FEF7C2FF01211C2001F030F90020694610
:1043B00008700120694688706A460C218020FFF74A
:1043C00053F80120694608706A460B218020FFF7E8
:1043D0004BF802220B218020FFF72BF901220C2140
:1043E0008020FFF726F900F072F807BD70B590B095
:1043F000060000240C2102A8FEF796FF18210AA847
:10440000FEF792FF142105A8FEF78EFF032101A8F5
:10441000FEF78AFF02216846FEF786FFFFF7BDFF21
:104420000121022001F0F2F8934807900020059046
:1044300092480690924809909248089005A80E90DC
:1044400001200AA9087500200AA9087201200AA9FA
:104450000870022069460870002069464870684666
:104460000B9000206946087101A80D9000210020E2
:10447000FDF73CFC0AA90020FDF765FE02210020A3
:10448000FDF76EFC00F03CFF0290012002A90871CC
:1044900096208001049002A90020FDF77BFC050016
:1044A000290089B20020FDF7AFFC01210020FDF7B3
:1044B00060FB01210020FDF74DFD02210020FDF7EA
:1044C00049FD01210020FDF7AEFC10B070BDE0B544
:1044D00001211C2001F09AF805216846FEF724FF0F
:1044E0000020694608706A4609214020FEF7BCFF9B
:1044F00059480068024901405748016007BD000063
:10450000FFFDFFFFE0B505216846FEF70DFF012125
:104510001C2001F07BF800206946087001206946E4
:1045200088706A4600210020FEF79EFF0120694640
:1045300008706A4601210020FEF796FF0222002142
:104540000020FFF776F8022201210020FFF771F822
:1045500007BD70B590B0040000260C2102A8FEF73C
:10456000E3FE18210AA8FEF7DFFE142105A8FEF7D6
:10457000DBFE032101A8FEF7D7FE02216846FEF705
:10458000D3FEFFF7BFFF0121032001F03FF83E48B3
:10459000079000200590394806903948099039481D
:1045A000089005A80E9001200AA9087500200AA904
:1045B000087201200AA908700220694608700020CC
:1045C0006946487068460B9000206946087101A84A
:1045D0000D9000210120FDF789FB0AA90120FDF7BC
:1045E000B2FD02210120FDF7BBFB00F089FE029025
:1045F000012002A908712000C0B2012803D1962031
:104600008001049006E02000C0B2022802D196206A
:10461000C001049002A90120FDF7BCFB05002900A0
:1046200089B20120FDF7F0FB012201210920FCF7EE
:10463000B9FF01210120FDF78DFC02210120FDF7CA
:1046400089FC01210120FDF7EEFB01210120FDF78E
:1046500090FA10B070BD0000480D024081000020AB
:104660000458004040A20000145800400C5800407C
:10467000680400200403002041430000954300002B
:1046800097430000994300008D46000080B501204B
:10469000FDF7C6FCC0B200F018FB01BD70B50F22DB
:1046A000A249FE20000200F00CF90822A049FC20DB
:1046B000000200F006F99D480078A5281ED0A5202C
:1046C0009A490870012099494870012097498870DB
:1046D00001209649887202209449C8722720C0435D
:1046E000924908730A209149487300208F498873C2
:1046F0000F228E49FE20000200F0EFF88C4800786F
:104700005A2808D05A208A49087008228849FC2073
:10471000000200F0E2F800F0F2F88449C870854821
:1047200000F0FBF8844800F0EEF88048C078FF28DD
:1047300002D100207D49C8707C48C07AFF2802D190
:1047400002207A49C87279480C2140560021C94399
:10475000884203D12720C043744908737348807B83
:10476000022802DB0020714988737048007907280D
:1047700008D106246F4D714E22002900300000F050
:1047800087FF07E0062400256A4E2A00210030003A
:1047900000F0ACFF66488078FF2808D00624664DFC
:1047A000674E22002900300000F072FF07E0062467
:1047B0000025614E2A002100300000F097FF5B4881
:1047C000C0789449C870594840789349C870574890
:1047D0008078914908715548807A8F49087053480C
:1047E000C07A8D4948705148007B8B4988704F488A
:1047F000407B894908734D48807B874948738648C8
:10480000C07BF82101408448C1738348C07BE72105
:104810000140102008438049C8737F48C07BDF21D6
:1048200001407D48C1737C48C07B4006400E7A49F8
:10483000C8737948C07BBF2101407748C1731420F9
:10484000754988717548744988607348C078062135
:10485000484373494018734908806F48C078032162
:10486000484371494018714908806B48C07B7049C2
:1048700008706948007B0A2141436E480180664800
:10488000007B0A2141436C48018070BD10B572B6AF
:104890000024200080B2082809DA200080B24002FB
:1048A000EC2109024018FEF7C9FA641CF1E7FE206A
:1048B0000002FEF7C3FAFC200002FEF7BFFA62B660
:1048C00010BD70B506000D0014002200D2B2290000
:1048D000300080B200F05FFF70BD70B504000E00C4
:1048E000150072B6200080B2FEF7A8FA2A00D2B2F4
:1048F0003100200080B200F05DFF62B670BD4F480D
:104900000078C0B2704770B5040006254D4E2A00ED
:104910003100200000F0BCFE70BD10B5040006227E
:104920002100494800F037FF10BD0000B803002007
:104930000C040020BC0300200E04002072030020A1
:104940007903002038B504002000C0B2012809D046
:104950005FD303282ED019D305283FD034D306289F
:104960004ED056E000200100C9B2062907DA002126
:10497000334A0300DBB2D2181171401CF3E70F2257
:104980002F49FE200002FFF7A8FF42E000200100AF
:10499000C9B2062907DA00212C4A0300DBB2D2187B
:1049A0009170401CF3E708222849FC200002FFF721
:1049B00094FF2EE00A202249C8700F222049FE20D1
:1049C0000002FFF78AFF24E00020204948700822F7
:1049D0001E49FC200002FFF780FF1AE072B6002596
:1049E000280080B2082809DA280080B24002EC21B1
:1049F00009024018FEF722FA6D1CF1E762B608E0E2
:104A0000FF200F490870FF2010490870FFF73EFF94
:104A1000FFE731BD60030020C80300200000C04153
:104A2000CA0700007A000020CD0700007C000020AB
:104A300069040020480400204A04002002FE00000F
:104A4000B803002002FC000003FE00000C0400205C
:104A500000B501000022002901D1002007E000205C
:104A60000A00511C1278002A01D0401CF8E700BD52
:104A700010B503001C00002B01D1002008E010003D
:104A8000421E80B2002802D02170641CF7E7180093
:104A900010BDF0B503001C000D00002B01D0002953
:104AA00001D1002027E0A54204D2100080B22818CE
:104AB000A0420ED200263000170080B2BFB2B8422A
:104AC00018D2300080B2285C3700BFB2E055761CA7
:104AD000F1E71600300080B200280BD0300080B221
:104AE0002818401E00783700BFB2E7197F1E3870C3
:104AF000761EEFE71800F0BD0100002208780002E2
:104B00004B78034318028B7803431B02C878184381
:104B1000704738B500250021280080B200F0C2FEA1
:104B20000400210089B2032000F0FEFE31BD38B53B
:104B300000250121280080B200F0B4FE040021000D
:104B400089B2032000F0F0FE31BDF3B581B0002042
:104B500069460880684601796846008800F0A2FE30
:104B600007000121380080B200F09CFE0600002101
:104B7000300080B200F096FE04000121200080B2D7
:104B800000F090FE05006846007A002806D100215A
:104B9000280080B200F086FE040005E00121280014
:104BA00080B200F07FFE0400210089B2062000F0F0
:104BB000BBFE0120FEBDF1B582B00D0000206946AC
:104BC00008806846017A6846008800F06BFE6946F6
:104BD000088002216846008800F064FE694608806B
:104BE00000216846008800F05DFE694608800421C7
:104BF0006846008800F056FE69460880290EC9B252
:104C00006846008800F04EFE694608802900090CBD
:104C1000C9B26846008800F045FE0700290AC9B2FB
:104C2000380080B200F03EFE06002900C9B2300014
:104C300080B200F037FE0400210089B2062000F0A7
:104C400073FE0120FEBDF3B581B0002069460880E7
:104C5000684601796846008800F024FE69460880AD
:104C600004216846008800F01DFE0700002138007E
:104C700080B200F017FE06000121300080B200F083
:104C800011FE05006846017A280080B200F00AFE95
:104C90000400210089B2062000F046FE0120FEBD7E
:104CA000007870470078704738B505000C00280080
:104CB000FFF722FF32BD874887490860854887494A
:104CC0000860002086490880704700B5844909883B
:104CD00084225200914214D27F490968814A91424C
:104CE00002D37C497C4A11607B49096808707A4983
:104CF0000968491C784A116079490988491C784A31
:104D0000118000BD1CB5002069460880002069465E
:104D1000488000206946888009206946C88072481A
:104D2000008889280FD200F054FE00280BD06E486E
:104D300004882000401C6C49088000F054FE6B4938
:104D4000A4B20855EBE768480088092800DAC0E0FB
:104D50006548008880B269460988401A092800DA47
:104D600083E068460088614980B2085C552805D018
:104D700068460088401C69460880E9E76846008864
:104D80005A4980B208184078AA2805D06846008899
:104D9000401C69460880DBE768460088534980B2BA
:104DA000081880786946888068468088022805D07F
:104DB00068460088801C69460880C9E76846008804
:104DC0004A4980B2081880798021490041436846E9
:104DD000418068460088454980B20818C079694614
:104DE0004988C0B20930081869464880684640883A
:104DF000932805D368460088C01C69460880A7E749
:104E0000394800886946098880B289B2401A6946E3
:104E10004988884229DB68464088411E89B2334868
:104E20006A461288801800F06EFD694609886A4655
:104E300052882E4B89B292B289185918491E0978A6
:104E4000C0B2884205D068460088C01C6946088008
:104E50007EE76846008800F03AFF68464088694669
:104E6000098808186946088072E7684600881E4964
:104E70000988081A1C4908801B480088002828D087
:104E80006846008800281AD117480088892816D358
:104E900068460088401C69460880684600881249B8
:104EA0000988081A104908800F48028892B20F48F2
:104EB0006946098841180D48FFF7EBFD09E00A48EB
:104EC000028892B209486946098841180748FFF7E5
:104ED000E0FD13BD880000203C04002040040020B9
:104EE0005404002090010020520400209001002072
:104EF000A048A1490860A1489F490860704770B563
:104F000005000C000026FFF7F3FFE4B2002C01D0EF
:104F1000012100E000212800C0B2002806D00228AC
:104F200040D01BD304287BD054D391E09448006830
:104F3000012290430A00D2B21300DB07DB0F0343C8
:104F40008F4803600800C0B2002806D08D48006872
:104F500002001205D20F002AF4D07BE08A480068D4
:104F60000122024388480260874800680222024307
:104F70008548026082480068022290430A00D2B24B
:104F8000520002231A4002437D4802600800C0B26A
:104F9000002806D07D48006802005206D20F002A81
:104FA000F4D057E076480068042290430A00D2B259
:104FB000920004231A400243714802600800C0B204
:104FC000002806D0724800680200D204D20F002ADE
:104FD000F4D03FE06F4800688022D20102436D4860
:104FE00002606C4800688022120202436948026035
:104FF00063480068082290430A00D2B2D200082316
:105000001A4002435E4802600800C0B2002806D081
:105010006148006802005206D20F002AF4D019E05D
:1050200057480068102290430A00D2B212011023A0
:105030001A400243524802600800C0B2002806D05D
:10504000B548006802005203D20F002AF4D001E0F4
:10505000042006003000C0B270BD010000204B4AA1
:10506000126803239A430B00DBB29B079B0F134389
:10507000464A1360C0B2704730B402000020464B6D
:105080001B680C24A3431400E4B2A4000C252540A3
:105090001D43414B1D60404B1B680324A3430C0080
:1050A000E4B2A407A40F1C433B4B1C60C0B230BC4D
:1050B000704710B401000020344A126830239A432C
:1050C0000B00DBB21B0130241C4014432F4A146038
:1050D000C0B210BC704710B4010000202C4A126806
:1050E0008E4B13400A00D2B29202C0242401144015
:1050F0001C43274A1460C0B210BC704710B40100B2
:105100000020254A126830239A430B00DBB21B01B2
:1051100030241C401443204A1460C0B210BC7047B5
:1051200010B4010000207C4A12687D4B13400A0035
:10513000D2B2D203E024A40214401C43764A146085
:10514000C0B210BC704738B504000025FFF7D0FE90
:105150000B480068E02188432100C9B24901E022E0
:105160000A4002430648026000F07AFE2800C0B2FE
:1051700032BD00005A5A000008200040A5A50000DA
:10518000002000400C200040CC0D024010200040C8
:10519000142000408C0D02401820004018B589B042
:1051A000002404A85F49142200F086FA03A85E498F
:1051B0000A68026068460C2100F0C0FA5B4800886B
:1051C000694608815A4800886946C880594800885D
:1051D000694688809E480088694648809D480088C6
:1051E000694608809C48006840094107490F08004B
:1051F000C0B2002806D0022830D02DD304283ED0DB
:105200003AD374E0954800684005400D6A4612891B
:10521000904201D108981EE0904800684005400D7A
:105220006A46D288904201D1079814E08B48006802
:105230004005400D6A469288904201D106980AE0E6
:10524000864800684005400D6A465288904201D168
:10525000059800E004984BE0814849E068460088E2
:10526000804A12689205920D904202D103A84088AC
:1052700001E0684680893BE08020000238E0264853
:1052800000688007800F032829D168460089734A87
:1052900012685205520D904201D1089820E06846EC
:1052A000C0886E4A12685205520D904201D107988B
:1052B00016E068468088694A12685205520D90428D
:1052C00001D106980CE068464088644A126852058D
:1052D000520D904201D1059802E0049800E0604828
:1052E0000D4A126852091207120F504300E00020C5
:1052F000594A1268120A5207520FD0400AB010BD24
:1053000010B50024FFF74AFF53490968C90A890705
:10531000890FC84010BD00003C200040FFF3FFFF94
:10532000FF7FFCFF608C0000C08C0000000C1000B0
:10533000020C1000040C100038B504000025207881
:10534000002806D002280CD004D3042815D00CD392
:1053500017E018E00320FFF780FE0320FFF7A9FE07
:1053600011E00320FFF7B7FE0DE003210320FFF754
:1053700083FE0320FFF7C2FE05E00720FFF7D0FE03
:1053800001E00420050001212078FFF7B8FD207816
:10539000FFF7D9FE607800F00FF9A07800F021F94E
:1053A0002800C0B232BD00B5010000200A00D2B210
:1053B000002A06D0022A1ED010D3042A35D027D3C3
:1053C00040E0A14A128892B2244B1B68DB0ADB0240
:1053D0005205520D1A43214B1A6035E01C4A1288BF
:1053E00092B21E4B1B68DB0ADB025205520D1A43B8
:1053F0001A4B1A6028E0954A128892B2174B1B6824
:10540000DB0ADB025205520D1A43144B1A601BE0F3
:105410008F4A128892B2114B1B68DB0ADB025205DD
:10542000520D1A430D4B1A600EE08A4A128892B24E
:105430000A4B1B68DB0ADB025205520D1A43074B6D
:105440001A6001E004221000C0B200BD000000009C
:10545000060C1000200C1000002000400C20004022
:1054600000366E01142000403EB504000025684659
:105470000C2100F063F97748008869460881744878
:1054800000886946C88071480088694688807248EB
:10549000008869464880A07803282DD16846008995
:1054A0006E4909684905490D884202D1E078032810
:1054B00020DA6846C088694909684905490D88426B
:1054C00002D1E078032815DA6846808863490968C4
:1054D0004905490D884202D1E07804280ADA684675
:1054E00040885E4909684905490D88420CD1E07839
:1054F000072809DB062036E0E07859494843594936
:10550000884201D306202EE0207857490968574A7F
:105510000A404003C021C9010140114352480160C3
:105520006078514909681C22914380001C22024086
:105530000A434D480260E0784B4909684C4A0A40EA
:105540004001F02149000140114347480160A07823
:1055500045490968032291438007800F0843424967
:1055600008602800C0B23EBD00B5010000200A005E
:10557000D2B2002A02D0012A0DD019E03D4A128889
:1055800092B23D4B1B689B0A9B029205920D1A43F7
:10559000394B1A600EE0394A128892B2364B1B68BA
:1055A0009B0A9B029205920D1A43334B1A6001E04D
:1055B00004221000C0B200BD38B504000025FFF77A
:1055C00097FC2F4800682F4901402000C0B200021C
:1055D000E022D20002400A43294802602800C0B2FB
:1055E00032BD38B504000025FFF782FC244800686E
:1055F000254901402000C0B2C002C0225201024031
:105600000A431F4802602800C0B232BD10B5020034
:105610000020C9B2002901D0012100E000210B00C7
:10562000DBB2002B07D0194B1B68012494401C43AC
:10563000164B1C6006E0154B1B6801249440A343E5
:10564000124C2360C0B210BD080C1000040C1000F6
:10565000020C1000000C1000060C10000C20004082
:1056600000366E01016CDC023C200040FF9FFFFF12
:105670001FFEFFFF220C100014200040200C100021
:1056800000200040FFF8FFFFFFE7FFFF2020004061
:10569000124207D08B0706D00B78491C0370401CC0
:1056A000521EF7D87047830706D00B78491C037049
:1056B000401C521EF9D1704770B4103A03D378C918
:1056C000103A78C0FBD2530701D318C918C001D5CE
:1056D00008C908C0D20704D30B880380891C801C2A
:1056E000002A01D50B78037070BC70471206130AAC
:1056F0001A43130C1A4300BF094205D0830705D093
:105700000270401C491EF9D170470000130030B4EC
:1057100014001500103902D310393CC0FCD24907DF
:1057200000D30CC000D504C0890002D30280801CC5
:10573000002900D5027030BC704700000022E5E768
:1057400080B50120FDF746F901280BD10120FDF7B6
:1057500059F94A4800680121014348480160012085
:10576000FDF78CF90020FDF735F901280BD1002059
:10577000FDF748F941480068022101433F480160B4
:105780000020FDF77BF901BD80B501220C213C48CA
:10579000FDF7BEF901BD30B500231C001500E4B2D1
:1057A000EDB2AC4205D204780C70491C401C5B1C65
:1057B000F3E730BD30B5030080204002834201D3BF
:1057C00004205AE02F480068000C00042E4C0443CB
:1057D0002C4804602B480068000C00042B4C044348
:1057E000284804600020C043294C206029480068F4
:1057F0000400E406E40F002CF8D122480068000CF5
:105800000004214C04431F4804601E480068000C3B
:1058100000041E4C04431B4804601E480068032417
:10582000A043012404431B48046000242000150009
:10583000C0B2EDB2A84205D2087818705B1C491CB2
:10584000641CF3E7134800680500ED06ED0F002D1A
:10585000F8D10C480068000C00040B4D05430948C2
:10586000056008480068000C0004084D0543054821
:1058700005600020064D2860002030BD180400207F
:10588000415700002C0002405A5A0000A5A5000014
:1058900030000240200002409D49088070479C482B
:1058A000008870479B4A03009BB2D21808321170DF
:1058B000401C80B27047F8B504000E0015009548F2
:1058C000210089B24018070008372A0092B231003F
:1058D0003800FFF7DEF8601980B2F2BD38B5050078
:1058E0000C00002D03D0200080B2002800D109E078
:1058F0002000441E80B2002804D0287800F0CCFAA2
:105900006D1CF5E731BD30B50200002000231C00FE
:105910000D00A4B2ADB2AC4204D214780019521CEE
:105920005B1CF4E7C0B230BDF8B504000F000026E0
:10593000FFF7B5FF5521774A1170AA21754A5170BA
:105940000221744A9170010089B2090A714AD1702A
:105950000100704A11716F494C71390089B2090A0E
:105960006C4A917139006B4AD1716946401C0880BC
:1059700068460088FFF790FF0937791E89B26548AD
:10598000FFF7C1FF05006348390089B24018401E87
:105990000570390089B25F48FFF7A0FFF1BD38B547
:1059A000040000F0F9FB0100002002000B00D2B25D
:1059B000DBB29A420BD2944A0300DBB202256B435E
:1059C000D25C2300DBB29A4201D0401CEDE7C0B2AA
:1059D00032BD80B58D480088002801D1FFF76BF9F2
:1059E0008A48008802BD00B500208849098800293E
:1059F00015D087490968874A914202D38649844A6B
:105A00001160834909680978814A1268521C804BE9
:105A10001A6008007D490988491E7C4A1180C0B27D
:105A200000BDFFB506000C0001A87C492CC92CC0A4
:105A30000C390C38002000900025002E01D0002CDD
:105A400001D1002062E030003C21FBF7DEFCA160C8
:105A500030003C21FBF7D9FC060030003C21FBF76D
:105A6000D4FCE17130003C21FBF7CFFC070038008B
:105A70006B49FBF7CAFC0600B0006A494018206079
:105A800038006749FBF7C1FC0F0067480500207824
:105A90008007800F002800D11835AF4210D238009F
:105AA0001821FBF7B2FCA17138001821FBF7ADFCFF
:105AB0000100491C20788007800F002811D104E0E4
:105AC0002068401C20607F1BDFE73D2901D3491E71
:105AD00007E03C2905D1012020711D2060712000C4
