:1000000098070020A13200001B08000061270000B3
:1000100000000000000000000000000000000000E0
:100020000000000000000000000000001B080000AD
:1000300000000000000000001B0800001B0800007A
:10004000B1270000BB270000C5270000CF27000014
:100050001B0800001B080000D9270000E327000050
:100060001B0800001B080000ED2700001B08000013
:10007000F72700001B080000012800000B280000E3
:10008000152800001B0800001F2800002928000078
:10009000332800003D280000472800001B0800000E
:1000A000512800001B0800005B28000065280000A4
:1000B0006F2800001B08000079280000832800003A
:1000C000F0B5020052B2002A1DD4754A03005BB29B
:1000D0009B0804246343D258FF238407A40F0825F8
:1000E0006C43A3409A438B01DBB28407A40F08251D
:1000F0006C43A34013436A4A040064B2A408042575
:100100006C43135122E0844A03005BB21B071B0FB0
:10011000083B9D0804235D437F4B040064B2240721
:10012000240F083CA408042674431B59FF248607A7
:10013000B60F08277E43B440A3438C01E4B2860780
:10014000B60F08277E43B4401C435451F0BD5B48B2
:10015000874908607148864908607047854800688B
:100160006F49014083480160704770B50400250065
:100170008048006800098607B60F2800C0B2002832
:1001800003D0022806D001D308E009E0062000F0E1
:10019000ADF905E0032000F0DDF901E0042034E0D2
:1001A00046489F4908605D489D4908602800C0B2E4
:1001B000012803D03000C0B2012805D19948006859
:1001C000042101439748016001212800C0B200F0DA
:1001D000FBF92800C0B200F0A5F80028F9D02800EB
:1001E000C0B200F07AF800213000C0B200F0ECF9A3
:1001F0002800C0B2012805D08A480068042188433D
:100200008849086000F0CCFA002070BD3EB500229D
:1002100000216846844B1C68046001A8834B30CBE6
:1002200030C0083B083853480068000983079B0F1B
:100230001800C0B2002803D002281BD024D325E028
:100240006846914C2468640AA407A40F005D8F4C93
:1002500060438F4CA0420CD18E4A128811000A00D4
:1002600092B2894C24686405640DA24201D18A4A85
:1002700010000CE001A8894C24682500AD05ED0FA5
:1002800004246543405902E0974800E00020394AC1
:10029000126892095207520FD0403EBD0000000084
:1002A00000E400E010B50024FFF7B0FF3149096811
:1002B000490A8907890FC84010BD00005A5A00003A
:1002C00010B504002078FFF750FF607800F0B0F818
:1002D000A07800F0E5F8002010BD38B50400002536
:1002E000FFF735FF2000C0B2002802280CD82148B3
:1002F0000068302188432100C9B2090130220A4038
:1003000002431C48026003E0FFF728FF04200500B9
:100310002800C0B232BD00001CED00E0A5A5000021
:10032000FF87FFFF00B5010000200A00D2B2002ABB
:1003300003D0022A11D008D317E0534A1268D20A18
:100340001300DB07DB0F18000FE0814A12689209E7
:100350001300DB07DB0F180007E0504A1268120B8E
:100360001300DB07DB0F1800FFE7C0B200BD000081
:10037000082000400020004000B5010000200A00D5
:10038000D2B2022A07D047D3042A1ED010D3062A9D
:1003900035D027D340E0894A128892B23A4B1B6885
:1003A000DB0ADB025205520D1A43374B1A6035E067
:1003B000834A128892B2344B1B68DB0ADB02520577
:1003C000520D1A43304B1A6028E07E4A128892B2CE
:1003D0002D4B1B68DB0ADB025205520D1A432A4BD8
:1003E0001A601BE02B4A128892B2274B1B68DB0A6B
:1003F000DB025205520D1A43234B1A600EE0A24A4B
:10040000128892B2204B1B68DB0ADB025205520DA8
:100410001A431D4B1A6001E004221000C0B200BD57
:100420002C00024020000240A8330000803300006E
:1004300010B504002000C0B2401E01280BD9C01E18
:1004400009D0001F07D0083805D0103803D0203855
:1004500001D0403815D1FFF77AFE2000C0B200F07D
:10046000C1F90100C1480068974A02400800C0B2C3
:100470008001E0235B0003401343BC48036000207D
:1004800000E0042010BD00000C20004040420F009E
:1004900000366E01020C100040865101142000400D
:1004A00010B504002000C0B2401E012803D9C01EB0
:1004B00001D0001F15D1FFF74AFE2000C0B200F0A6
:1004C00091F90100A9480068A94A02400800C0B299
:1004D0004002C023DB0003401343A4480360002014
:1004E00000E0042010BD00000048E80100B5010054
:1004F00000200A00D2B2032A06D025D3052A13D041
:1005000009D3062A19D01FE09A4A126830239A4369
:10051000984B1A601AE0974A126830239A431023C6
:100520001343944A136011E0924A126830239A43AD
:10053000202313438F4A136008E08E4A1268302349
:1005400013438C4A136001E004221000C0B200BDC6
:100550001020004000B5010000200A00D2B2002A9D
:1005600005D0022A14D009D3032A1BD022E0824AE4
:100570001268824B1340804A13601DE07E4A126865
:100580007E4B13408022D2001A437B4B1A6013E04B
:10059000794A1268794B1340802212011A43764B34
:1005A0001A6009E0744A1268C0231B011343724A9F
:1005B000136001E004221000C0B200BD080C10005E
:1005C000060C1000040C100070B505000C0000268D
:1005D000FFF7BDFDE4B2002C01D0012400E00024AF
:1005E0002800C0B200283BD0022801D00DD344E03F
:1005F0005E480068042188432100C9B289000422B2
:1006000011400143594801603BE05D480068022108
:1006100088432100C9B249000222114001435848D1
:10062000016057480068042188432100C9B289004D
:10063000042211400143524801604E4800680F21D6
:1006400001434C4801604948006802218843210069
:10065000C9B249000222114001434448016010E040
:1006600042480068012188432100C9B20A00D2072C
:10067000D20F02433D48026003E0FFF76FFD042004
:1006800006003000C0B270BD000C100010B50200B2
:100690000020C9B2002901D0012100E000210B0097
:1006A000DBB2002B07D0374B1B68012494401C435E
:1006B000344B1C6006E0334B1B6801249440A34379
:1006C000304C2360C0B210BD3FFEFFFF10B50400E8
:1006D000002C01D1042047E02A4800688021490409
:1006E0000143284801602078002803D002280BD05D
:1006F00014D31BE0244800682449014080200005F1
:1007000008432149086013E01F4800681F49014061
:100710008020C00408431C49086009E01A480068AA
:10072000C021090501431848016001E004201BE0D5
:10073000607815490968164A0A40400680218904F4
:1007400008401043104908606068401E1149086065
:1007500003210020C043FFF7B3FC00200E490860CE
:1007600001200E490860002010BD0000002000405C
:10077000FFF9FFFF1020004014200040FFF3FFFFAF
:100780000C0D02402020004034200040FFFFFFF30A
:10079000FFFFFFFD14E000E018E000E010E000E0E3
:1007A00080B5FFF733FD0D49086001BDE0B50620B7
:1007B000FFF7E2FD01210020FFF706FFFFF7F0FF42
:1007C0000821684600F01CF801206946487004487A
:1007D00001906846FFF77AFF07BD0000280000205F
:1007E000FFFFFF0000B501000022002901D1002019
:1007F00005E0022902D3521C4908FAE7100000BDA7
:1008000000B50200002A07D00B00591E002B03D0B0
:1008100000231370521CF7E700BDFEE788490880EB
:100820007047874800887047AA4A03009BB2D218D5
:100830001172401C80B27047F8B504000E0015001C
:10084000A448210089B24018070008372A0092B254
:100850003100380000F0A5FA601980B2F2BD30B561
:100860000200002000231C000D00A4B2ADB2AC4277
:1008700005D21C00A4B2145D00195B1CF3E7C0B2E2
:1008800030BDF8B504000F000026FFF7CAFF552160
:10089000904A1170AA218F4A517002218D4A91709D
:1008A000010089B2090A8B4AD1700100894A11718D
:1008B00088494C71390089B2090A864A9171390018
:1008C000844AD1716946401C088068460088FFF759
:1008D000A5FF0937791E89B27E48FFF7C0FF0500E2
:1008E0007C48390089B24018401E05703900C9B2F1
:1008F000784800F028FDF1BD38B5040000F031FE65
:100900000100002002000B00D2B2DBB29A420BD2EF
:10091000884A0300DBB202256B43D25C2300DBB2C2
:100920009A4201D0401CEDE7C0B232BD00B50020B4
:1009300081490978002908D07F490978491E7E4AF3
:1009400011707E4AC9B2515C0800C0B200BDFFB54B
:1009500006000C0001A87A492CC92CC00C390C38AF
:10096000002000900025002E01D0002C01D1002095
:1009700062E030003C2100F00FFEA16030003C211D
:1009800000F00AFE060030003C2100F005FEE17197
:1009900030003C2100F000FE07003800694900F0FB
:1009A000FBFD0600B000684940182060380065492A
:1009B00000F0F2FD0F006548050020788007800FE9
:1009C000002800D11835AF4210D23800182100F0AD
:1009D000E3FDA1713800182100F0DEFD0100491C83
:1009E00020788007800F002811D104E02068401C87
:1009F00020607F1BDFE73D2901D3491E07E03C292A
:100A000005D1012020711D206071200014E000201C
:100A1000207101A82279805C884207D201A822793E
:100A2000805C091A2079401C2071F2E72079401C73
:100A3000207108006071200004B0F0BD00000000CB
:100A400084010020F8B5002069460870BD4800F018
:100A500087F9020092B2BB496846007880B2FFF77E
:100A6000EBFE69460870B84800F07AF9020092B2CD
:100A7000B5496846007880B2FFF7DEFE0700B3484C
:100A800000F06EF9020092B2B0493800C0B280B2F4
:100A9000FFF7D2FE0600AE4800F062F9020092B203
:100AA000AB493000C0B280B2FFF7C6FE0400A9A077
:100AB00000F056F9020092B2A6A12000C0B280B2A6
:100AC000FFF7BAFE05002900C9B289B20120FFF77D
:100AD000D8FEF1BD0C01002010B504000021022059
:100AE000FFF7CFFE10BD7047F8B504002578677892
:100AF000A07800026946E278801808802800C0B219
:100B0000FFF7FAFE060038000A493200D2B202238B
:100B10005A4389184978C0B2884201D0002007E0C2
:100B200068460288211D2800C0B200F0EBFCC0B26C
:100B3000F2BD000088330000960100203400002040
:100B40005C330000F8880000B20700003822000083
:100B5000704738B505000C002100C9B22800C0B2AA
:100B600000F0CBFC31BDF1B588B00F0000260025A8
:100B7000002069460870089C3800C0B2082836DB9F
:100B80000C22002104A800F0FBF80C22002101A88F
:100B900000F0F6F800200100C9B2032905DA217837
:100BA0003143641C0E02401CF5E72178314300916B
:100BB000611C00242000C0B2032805DA087828430D
:100BC000491C0502641CF5E70E782E434D1C01A953
:100BD0000098FFF7BCFE04A93000FFF7B8FE01A99A
:100BE000012000F089FC04A9002000F085FC09B078
:100BF000F0BDFEB5040000250027002668465649D2
:100C0000220092B28918497901705348210089B2B3
:100C100040188079000269464F4A23009BB2D218DF
:100C2000D279801848804C48210089B24018C07899
:100C300000026946484A23009BB2D21812798018F4
:100C4000888068468088FFF7E9FD68460078401E86
:100C50000DD0401E0ED0401E1DD0401E1ED0401E86
:100C6000012848D9C01E50D01C385FD069E0FFF77A
:100C7000E9FE66E03848210089B24018057A28006C
:100C8000C0B2FFF729FF2800C0B2012802D101201D
:100C90003249087055E0FFF726FF52E0002000259A
:100CA00000263000C0B26946498880B2884221D20D
:100CB0002948210089B23200D2B289184018807ABE
:100CC00001022548220092B23300DBB2D21880180C
:100CD000C07A081805002048210089B24018310068
:100CE000C9B240180830FFF7FFFE07002800001DBA
:100CF0003618D6E725E01848210089B24018057A51
:100D00002800C0B2FFF724FF1BE01348210089B27E
:100D10004018067A1048210089B24018457A290007
:100D2000C9B23000C0B2FFF714FF0AE0684641883C
:100D3000C9B20948220092B280180830FFF713FFA9
:100D4000FFE7F7BD903300006833000098330000E0
:100D5000A0330000227D0000C0000020940100208C
:100D600000B501000022002901D1002007E0002089
:100D70000A00511C1278002A01D0401CF8E700BD7F
:100D800010B503001C00002B01D1002008E010006A
:100D9000421E80B2002802D02170641CF7E71800C0
:100DA00010BDF0B503001C000D00002B01D0002980
:100DB00001D1002027E0A54204D2100080B22818FB
:100DC000A0420ED200263000170080B2BFB2B84257
:100DD00018D2300080B2285C3700BFB2E055761CD4
:100DE000F1E71600300080B200280BD0300080B24E
:100DF0002818401E00783700BFB2E7197F1E3870F0
:100E0000761EEFE71800F0BD01000022087800020E
:100E10004B78034318028B7803431B02C8781843AE
:100E2000704738B500250021280080B2FFF7FCFC90
:100E30000400210089B20320FFF723FD31BD38B53E
:100E400000250121280080B2FFF7EEFC04002100FC
:100E500089B20320FFF715FD31BDF3B581B0002045
:100E6000694608806846017968460088FFF7DCFC1F
:100E700007000121380080B2FFF7D6FC06000021F0
:100E8000300080B2FFF7D0FC04000121200080B2C6
:100E9000FFF7CAFC05006846007A002806D1002149
:100EA000280080B2FFF7C0FC040005E00121280003
:100EB00080B2FFF7B9FC0400210089B20620FFF7D9
:100EC000E0FC0120FEBDF1B582B00D0000206946B6
:100ED00008806846017A68460088FFF7A5FC6946E5
:100EE0000880022168460088FFF79EFC694608805A
:100EF000002168460088FFF797FC694608800421B6
:100F000068460088FFF790FC69460880290EC9B240
:100F100068460088FFF788FC694608802900090CAC
:100F2000C9B268460088FFF77FFC0700290AC9B2EA
:100F3000380080B2FFF778FC06002900C9B2300003
:100F400080B2FFF771FC0400210089B20620FFF790
:100F500098FC0120FEBDF3B581B0002069460880F1
:100F60006846017968460088FFF75EFC694608809C
:100F7000042168460088FFF757FC0700002138006D
:100F800080B2FFF751FC06000121300080B2FFF76C
:100F90004BFC05006846017A280080B2FFF744FC4C
:100FA0000400210089B20620FFF76BFC0120FEBD82
:100FB000007870470078704738B505000C002800AD
:100FC000FFF722FF32BD7A487A49086078487A49AB
:100FD0000860002079490870704700B577490978A2
:100FE000892902DB0021754A11707149734A127810
:100FF000885472490978491C704A117000BD1CB5AB
:101000000020694608800020694648800020694623
:10101000888009206946C8806948008849280FD21D
:101020006648007800280BD0654804882000401CE2
:1010300063490880FFF77AFC6249A4B20855EBE7E0
:101040005F480088092800DAB1E05D48008880B276
:1010500069460988401A09287BDB5A48694609888D
:10106000405C552805D068460088401C69460880C9
:10107000EBE754486946098840184078AA2805D00B
:1010800068460088401C69460880DEE74D4869468E
:1010900009884018807869468880684680880228D8
:1010A00005D068460088801C69460880CDE7454821
:1010B0006946098840188079000269464880684678
:1010C0000088694649883F4A80B21018C0790930C3
:1010D00008186946488068464088532805D3684602
:1010E0000088C01C69460880AFE73548008869461B
:1010F000098880B289B2401A69464988884228DB4B
:1011000068464088411E89B22E486A461288801877
:10111000FFF7A5FB694609882A4A89B26B465B88B6
:10112000C9185118491E0978C0B2884205D06846CE
:101130000088C01C6946088087E768460088FFF77A
:1011400058FD68464088694609880818694608803D
:101150007BE7684600881A490988081A18490880F8
:1011600017480088002822D068460088002810D13F
:101170001348008849280CD368460088401C6946FB
:101180000880684600880E490988081A0C490880BA
:101190000DE068460088002809D00948028892B20C
:1011A00008486946098841180648FFF7FAFD13BD4B
:1011B00034000020780100207C01002096010020EE
:1011C00082010020C000002080B570480068C0B2D5
:1011D000FFF703FF01BD70477047F8B592B00027D5
:1011E00000260C2106A8FFF70BFB032103A8FFF73D
:1011F00007FB082104A8FFF703FB14210DA8FFF744
:10120000FFFA01210820FFF741FA01210120FFF731
:101210003DFA002002900020019000200090012360
:1012200000220521032000F0B5FA002002900020E2
:10123000019000200090012301220621032000F0EC
:10124000A9FA534800682021884351490860514851
:10125000006807218843012101434E4801604E4840
:101260000068202188434C490860494800684021B3
:10127000884347490860494800680721884301219D
:101280000143464801604448006840210143424808
:10129000016043480068402101434148016001204A
:1012A00009A90870002069460873002003A9487046
:1012B000002003A9887003A80A903A4808903A4889
:1012C00006903A48079006A80B90012009A90873D8
:1012D000012069460874002004A948709620800106
:1012E0000590FEF7DFFF040004AA2100012000F0B2
:1012F0001BFD050001200DA9487100200DA90871F2
:101300000DA9012000F094FE290089B2012000F00F
:10131000CBFF290089B2012000F0FAFF012000F084
:1013200073FF09A9012000F0E2FD0121012000F076
:1013300050FD0121012000F031FD0121012000F0CC
:101340008DFC13B0F0BD10B5002213000C00DBB211
:10135000E4B2A34219D2164B1B680224A343144CD7
:1013600023601300DBB2C35C084C2360114B1B6885
:101370001C00A407E40F002CF8D00D4B1B680224BE
:10138000A3430B4C2360521CDFE710BD000100405B
:10139000CC0D0240D40C0240C00D0240D80C0240DB
:1013A000E40D0240C9110000D9110000D71100005E
:1013B000140100401001004080B52F4800782F49EB
:1013C0004978884208D02D4841780120FFF745FD33
:1013D0002A4840782849087029480078294909781E
:1013E00088420DD0192027490978401A81000A2027
:1013F00041430220FFF767FD22480078204908702A
:1014000001BD70B506000D00290089B23000FFF75C
:10141000CFFD0400194844702100C9B20120FFF734
:101420001CFD01000800C0B2012801D1012000E02C
:10143000002070BDF8B506000D00290089B230000B
:10144000FFF7BAFD0400182720000A2100F0A4F8D5
:10145000401E8008381A0B49087021000220FFF74F
:1014600032FD01000800C0B2012801D1012000E0D6
:101470000020F2BD000000003000002058010020D4
:10148000950100202E00002070B506000D002900F7
:1014900089B23000FFF790FD040021000320FFF720
:1014A00012FD01000800C0B2012801D1012000E0B6
:1014B000002070BD70B506000D00290089B2300013
:1014C000FFF778FD04002000C0B2002803D00228F6
:1014D00003D001D302E001E000E0FFE72100C9B240
:1014E0000420FFF738FD01000800C0B2012801D137
:1014F000012000E0002070BD704700B50200D2B2AC
:10150000002A00BDF8B506000C00170000253000C9
:10151000C0B2012806D021D3032811D009D3042852
:1015200015D01BE0390089B22000FFF76AFF0500E3
:1015300014E0390089B22000FFF77CFF05000DE0C0
:10154000390089B22000FFF79FFF050006E039004F
:1015500089B22000FFF7AEFF0500FFE72800C0B208
:10156000F2BD04207047F446002804D4494200F03C
:1015700013F8404260474042002905D45FD000F094
:101580000BF8404249426047494200F005F84942A1
:10159000604703460B43E6D40022030A8B420BD27A
:1015A00003098B4219D243088B422ED2411A00D232
:1015B0000146524110467047FF2209023FD01206F1
:1015C0008B4205D3121209028B4201D31212090277
:1015D00003098B4219D300E0090AC3098B4201D3E6
:1015E000CB01C01A524183098B4201D38B01C01A2F
:1015F000524143098B4201D34B01C01A52410309A6
:101600008B4201D30B01C01A5241C3088B4201D354
:10161000CB00C01A524183088B4201D38B00C01A01
:10162000524143088B4201D34B00C01A52418842B9
:1016300000D3401A5241CFD201461046704708B538
:1016400000F0AAFE08BD000030B503001000C0B2D3
:10165000002811D01800C0B240246043C14C0019CA
:1016600004680120884020431C00E4B240256C43FC
:10167000BC4D6419206010E01800C0B240246043E3
:10168000B84C0019006801248C40A0431C00E4B24F
:1016900040256C43B34D64192060002030BD70B507
:1016A00004000D001600AE48006880214905014382
:1016B000AB48016000222900C9B22000C0B2FFF788
:1016C000C3FF2000C0B2402148432900C9B2042210
:1016D00051434018A4494018002101603000C0B2B5
:1016E000002811D02000C0B2402148439F49401833
:1016F00001680120A84008432100C9B2402251439B
:101700009A4A8918086010E02000C0B2402148437E
:101710009649401800680121A94088432100C9B2B8
:1017200040225143914A891808602000C0B24021EC
:1017300048438F49401800680121A940884321008F
:10174000C9B2402251438A4A891808602000C0B2B9
:10175000402148438749401800680121A940884337
:101760002100C9B240225143824A891808602000F2
:10177000C0B2402148438049401800680121A94077
:1017800088432100C9B2402251437B4A891808602E
:10179000002070BDFEB504000D00099F0A9E704830
:1017A00000688021490501436D480160002229003D
:1017B000C9B22000C0B2FFF747FF2000C0B24021ED
:1017C00048432900C9B204225143401866494018D1
:1017D0000021016068460079002811D02000C0B2C5
:1017E000402148436149401801680120A84008434E
:1017F0002100C9B2402251435C4A8918086010E0B8
:101800002000C0B2402148435849401800680121D7
:10181000A94088432100C9B240225143534A891844
:1018200008603000C0B2002811D02000C0B24021B2
:101830004843A649401801680120A84008432100F8
:10184000C9B240225143A14A8918086010E0200023
:10185000C0B2402148439D49401800680121A94079
:1018600088432100C9B240225143984A8918086030
:101870006846007A002811D02000C0B240214843B9
:101880003B49401801680120A84008432100C9B223
:1018900040225143364A8918086010E02000C0B247
:1018A000402148433249401800680121A94088433B
:1018B0002100C9B2402251432D4A8918086008A866
:1018C0000078002811D02000C0B2402148432949A7
:1018D000401801680120A84008432100C9B24022F5
:1018E0005143244A8918086010E02000C0B240210A
:1018F00048432049401800680121A940884321003D
:10190000C9B2402251431B4A891808603800C0B24E
:10191000002811D02000C0B2402148431649401889
:1019200001680120A84008432100C9B24022514368
:10193000114A8918086010E02000C0B240214843D5
:101940000D49401800680121A94088432100C9B20F
:1019500040225143084A891808600020FEBD00005B
:10196000202000400C0D0240000C0240000D0240FF
:10197000200D0240240D02402C0D024070B50400E1
:10198000D00726D51800C0B2002811D02000C0B260
:1019900040256843614D401905680120884028436F
:1019A0002500EDB2402675435C4EAD19286010E06D
:1019B0002000C0B240256843584D401900680125F9
:1019C0008D40A8432500EDB240267543534EAD1916
:1019D0002860900726D51800C0B2002811D020003A
:1019E000C0B2402568434E4D40190568012088402B
:1019F00028432500EDB240267543494EAD192860B5
:101A000010E02000C0B240256843454D40190068F1
:101A100001258D40A8432500EDB240267543404E78
:101A2000AD192860500726D51800C0B2002811D083
:101A30002000C0B2402568433A4D40190568012096
:101A4000884028432500EDB240267543354EAD1938
:101A5000286010E02000C0B240256843314D401995
:101A6000006801258D40A8432500EDB2402675434E
:101A70002C4EAD192860100726D51800C0B20028DA
:101A800011D02000C0B240256843274D4019056899
:101A90000120884028432500EDB240267543224EA0
:101AA000AD19286010E02000C0B2402568431E4DEB
:101AB0004019006801258D40A8432500EDB240265D
:101AC0007543194EAD192860002070BD1C0D0240F1
:101AD00070B506000D00140001232200D2B22900C7
:101AE000C9B23000C0B2FFF749FF002070BD10B48A
:101AF00002001000C0B2402358430C4BC0180068CD
:101B000001238B4098431300DBB240246343074C0E
:101B10001B191860002010BC70470000300D0240F7
:101B2000340D0240380D02403C0D0240100E0240C0
:101B300000B5010049B2002905D40121C206D20E28
:101B40009140404A116000BD00B5010049B2002932
:101B500005D40121C206D20E91403B4A116000BD5E
:101B600000B5010049B2002905D40121C206D20EF8
:101B70009140364A116000BDF0B5020052B2002A11
:101B80001DD4334A03005BB29B0804246343D2583C
:101B9000FF238407A40F08256C43A3409A438B01BD
:101BA000DBB28407A40F08256C43A3401343284AE3
:101BB000040064B2A40804256C43135122E0254AB2
:101BC00003005BB21B071B0F083B9D0804235D430A
:101BD000204B040064B22407240F083CA408042608
:101BE00074431B59FF248607B60F08277E43B44071
:101BF000A3438C01E4B28607B60F08277E43B440A6
:101C00001C435451F0BD70B5010000200023002298
:101C10001300DBB2022B13D20B00DBB20E4C15000B
:101C2000EDB2142675436459A34207D10A4B140040
:101C3000E4B214256C431B19180001E0521CE7E7BD
:101C400070BD000000E100E080E100E080E200E023
:101C500000E400E01CED00E00000002070B505008D
:101C60000C0000262800C0B2FFF7CDFF01000029BC
:101C700001D1042017E02000C0B2002802D00128C2
:101C800007D00DE04868406802220243486842607D
:101C900008E048684068012202434868426001E069
:101CA000042000E0002070BD70B505000C00002687
:101CB0002800C0B2FFF7A7FF0100002901D10420CE
:101CC0000CE048684068C02290432200D2B29201E2
:101CD000C0231340034348684360002070BD70B5C3
:101CE00005000C0000262800C0B2FFF78CFF0100A1
:101CF000002901D1042016E0002C13D020784A6876
:101D0000526820239A4340012023184010434A6818
:101D100050602078012805D160784A689060A078EA
:101D20004A68D060002070BDF3B581B01400002572
:101D3000002668460079FFF766FF0700002F01D0F4
:101D4000002C01D1002024E0607879684968124AAB
:101D50000A404002802189000840104379684860A9
:101D60002078002805D0022803D003D3032801D00F
:101D70000DE00CE0002602986178491C4843616838
:101D800020225143FFF708FC301A0500FFE7280026
:101D900080B2FEBD00000000FFFDFFFF70B5050032
:101DA0000C0000262800C0B2FFF72DFF010000291B
:101DB00001D104200CE048684068102290432200C2
:101DC000D2B2120110231A40024348684260002038
:101DD00070BD70B505000C0000262800C0B2FFF7EA
:101DE00012FF0100002901D104201FE02000C0B231
:101DF000002803D002280FD007D314E048684069B8
:101E0000042290434A6850610FE04868406901220B
:101E100090434A68506108E0486840690222904354
:101E20004A68506101E0042000E0002070BD70B5F8
:101E3000040000262000C0B2FFF7E5FE0500002DDB
:101E400030D06868006901004907C90F00290AD02D
:101E5000E868002801D0E868804700212000C0B26F
:101E6000FFF7B7FF1EE068680069C00709D5286959
:101E7000002801D02869804701212000C0B2FFF767
:101E8000A8FF6868006901008907C90F002909D007
:101E9000A868002801D0A868804702212000C0B2AD
:101EA000FFF797FF70BD38B505002C00A41D20007A
:101EB00040B2FFF755FE0121200040B2FFF75CFE63
:101EC000200040B2FFF734FE31BD38B505002C00CC
:101ED000A41D200040B2FFF743FE0321200040B2C2
:101EE000FFF74AFE200040B2FFF72EFE31BDF8B5E5
:101EF00004000D0001206946087000272000C0B2D0
:101F0000FFF781FE0600002E01D104202CE0002DF9
:101F100001D1042028E029782000C0B2FFF7C4FED8
:101F200007006868002805D069682000C0B2FFF784
:101F3000D6FE0700A868002808D0A8684068F060AE
:101F4000A86880683061A8680068B060287B0128B4
:101F500004D12000C0B2FFF7A6FF03E02000C0B20A
:101F6000FFF7B3FF0020C0B2F2BD000000B50100D2
:101F700000200A00D2B2002A03D0022A0FD007D3D1
:101F800014E09F4A126801239A439D4B1A600FE0A8
:101F90009C4A126801239A439A4B1A6008E0AC4AA3
:101FA000126801239A43AA4B1A6001E00122100033
:101FB000C0B200BD00B5010000200A00D2B2002A64
:101FC00003D0022A11D008D317E0A24A1268802356
:101FD000DB0013439F4A136011E09F4A126880237D
:101FE000DB0013439C4A136009E0AE4A1268802369
:101FF000DB001343AB4A136001E001221000C0B2C2
:1020000000BD10B504002000C0B2002803D0022893
:1020100009D004D30BE0BB480068804707E0BA480A
:102020000068804703E0B94800688047FFE710BDBB
:1020300030B5020000201300DBB2002B04D0022BCD
:1020400000D191E048D3D7E00B78824C2468C74D8B
:1020500025405B028024A40023402B437D4C236059
:102060004B787C4C2468C24D25401B0280246400C0
:1020700023402B43774C23608B78764C2468702563
:10208000AC431B0170251D402543724B1D60CB786E
:10209000704C24680825AC43DB0008252B40234303
:1020A0006C4C23600B796B4C24680425AC439B007B
:1020B00004252B402343674C23604B79654C2468EF
:1020C0000225AC435B0002252B402343614C236077
:1020D0008B688C4C236091E00B785F4C2468A34D97
:1020E00025405B028024A40023402B435A4C2360EC
:1020F0004B78594C24689E4D25401B028024640077
:1021000023402B43544C23608B78534C2468702518
:10211000AC431B0170251D4025434F4B1D60CB7800
:102120004D4C24680825AC43DB0008252B40234395
:10213000494C23600B79484C24680425AC439B0030
:1021400004252B402343444C23604B79424C2468A4
:102150000225AC435B0002252B4023433E4C236009
:10216000CB68694C236049E00B784E4C24687F4D66
:1021700025405B028024A40023402B43494C23606C
:102180004B78484C24687A4D25401B02802464001B
:1021900023402B43434C23608B78424C24687025AA
:1021A000AC431B0170251D4025433E4B1D60CB7881
:1021B0003C4C24680825AC43DB0008252B40234316
:1021C000384C23600B79374C24680425AC439B00C2
:1021D00004252B402343334C23604B79314C246836
:1021E0000225AC435B0002252B4023432D4C23608A
:1021F0000B69464C236001E001231800C0B230BDDA
:10220000140C0040340C004000B5010000200A000E
:10221000D2B2002A03D0022A0FD007D314E00D4A0D
:102220001268012313430B4A13600FE00A4A126835
:1022300001231343084A136008E04E4A1268012341
:1022400013434C4A136001E001221000C0B200BDEC
:10225000540C00400C0C00402C0C004000B5010058
:1022600000200A00D2B2002A03D0022A0FD007D3DE
:1022700014E0414A126801239A433F4B1A600FE071
:102280003E4A126801239A433C4B1A6008E0394ADF
:10229000126801239A43374B1A6001E001221000B3
:1022A000C0B200BD4C0C004010B50200002013006D
:1022B000DBB2002B03D0022B15D00AD31DE0304B2C
:1022C0001B681B0C1B040C00A4B223432C4C236082
:1022D00015E02C4B1B681B0C1B040C00A4B2234301
:1022E000284C23600BE0284B1B681B0C1B040C00C4
:1022F000A4B22343244C236001E001231800C0B2A0
:1023000010BD000060010020640100206801002071
:1023100010B5020000201300DBB2002B03D0022B0B
:1023200015D00AD31DE0194B1B681B0C1B040C00B5
:10233000A4B22343154C236015E0154B1B681B0CFE
:102340001B040C00A4B22343114C23600BE0114B7F
:102350001B681B0C1B040C00A4B223430D4C236010
:1023600001E001231800C0B210BD0000FFFDFFFF17
:10237000FFFEFFFF4C0C00400C0C00402C0C0040FA
:10238000000C0040200C0040400C0040040C0040B9
:10239000240C0040440C004070470000E0B50020D1
:1023A00002900020019001200090002301220421CE
:1023B0000320FFF7EFF90020029000200190012098
:1023C00000900023012204210120FFF7E3F90020FF
:1023D000029000200190012000900023012205219D
:1023E0000120FFF7D7F90020029000200190012082
:1023F00000900023012203210020FFF7CBF907BD45
:1024000000B50021894800680200D206D20F002AD8
:1024100002D00120C0B21FE0854800680200D20649
:10242000D20F002A02D00220C0B215E08048006816
:1024300002009206D20F002A02D00320C0B20BE0A5
:102440007C48006802001207D20F002A02D0042044
:10245000C0B201E00020C0B200BD10B50024FFF7FB
:10246000CFFF7549087075480078002809D0022808
:102470001FD010D304287CD02ED3052800D1AFE084
:10248000C5E06D4800786E490978884202D0012085
:102490006A490870C3E06848007869490978884249
:1024A00003D102206549087002E0002063490870EA
:1024B000B5E06148007862490978884208D1032074
:1024C0005E4908705E480078102101430C0002E06C
:1024D00000205A490870A2E0574800785849097806
:1024E000884224D1574800780100491C554A117090
:1024F000C0B2C92811DA54480078401C524908700B
:1025000051480078082833DB00204F4908704C48B8
:102510000078202101430C002AE00020494908707E
:1025200000204949087004204449087020E04248CE
:10253000007800280ED10020404908700020424950
:10254000087000203F4908703D4800783021014361
:102550000C000DE001203949087000203A4908704C
:1025600000203849087036480078302101430C00BB
:1025700055E03148007832490978884214D133480F
:1025800000780100491C314A1170C0B2FF2826D1E1
:1025900000202E4908700520284908702848007836
:1025A000402101430C001AE02348007800280BD199
:1025B0000020224908700020244908702048007833
:1025C000302101430C000AE001201C490870002062
:1025D0001E4908701A480078302101430C001EE0A3
:1025E000154800781649097888420FD014480078B9
:1025F000802101430C0010480078002803D10020FE
:102600000E49087002E001200C49087007E0002024
:10261000040000200A490870002007490870064895
:102620000078074908702000C0B210BDC40D0240F8
:10263000440D0240040D02408C0100208A0100205C
:102640008B0100208D0100208F0100208E010020D1
:1026500000B5010049B2002905D40121C206D20EFD
:1026600091404C4A116000BD00B5010049B20029FB
:1026700005D40121C206D20E9140474A116000BD27
:1026800000B5010049B2002905D40121C206D20ECD
:102690009140424A116000BDF0B5020052B2002ADA
:1026A0001DD43F4A03005BB29B0804246343D25805
:1026B000FF238407A40F08256C43A3409A438B0192
:1026C000DBB28407A40F08256C43A3401343344AAC
:1026D000040064B2A40804256C43135122E0314A7B
:1026E00003005BB21B071B0F083B9D0804235D43DF
:1026F0002C4B040064B22407240F083CA4080426D1
:1027000074431B59FF248607B60F08277E43B44045
:10271000A3438C01E4B28607B60F08277E43B4407A
:102720001C435451F0BDF8B506000C0017003500ED
:10273000280040B2FFF7A4FF2100C9B2280040B230
:10274000FFF7AAFF3800C0B2012804D1280040B228
:10275000FFF77EFF03E0280040B2FFF785FFF1BDE1
:1027600080B5002000900098002812D10E48006823
:10277000042101430C4801600C48006840210143DA
:102780000A480160094800682021014307480160A8
:10279000E9E701BD00E100E080E100E080E200E067
:1027A00000E400E01CED00E0080D0240880D02404E
:1027B00080B5002000F06AF801BD80B5012000F06E
:1027C00065F801BD80B5022000F060F801BD80B55C
:1027D000032000F05BF801BD80B50020FFF727FB68
:1027E00001BD80B50120FFF722FB01BD80B50020AF
:1027F00000BF00BF01BD80B5002000BF00BF01BD0C
:1028000080B50020FFF7FDFB01BD80B50120FFF77B
:10281000F8FB01BD80B50220FFF7F3FB01BD80B5D9
:10282000042000BF00BF01BD80B5052000BF00BF70
:1028300001BD80B5062000BF00BF01BD80B50020EE
:1028400000BF00BF01BD80B5002000F02FF801BD22
:1028500080B5002000BF00BF01BD80B5002000BFD3
:1028600000BF01BD80B5012000BF00BF01BD80B524
:10287000002000BF00BF01BD80B5002000F030F88F
:1028800001BD80B5002000F033F801BD10B5040093
:1028900000F06CF810BD000001211E200F4A1060EE
:1028A000E1200E4A10600020C0B2704780B5094890
:1028B000006801000906C90F002908D0FFF7ECFFE6
:1028C00005480068002802D003480068804701BD21
:1028D00000000000840C004074010020800C0040C7
:1028E00010B5040001480068804710BD6C0100204D
:1028F00010B5040001480068804710BD7001002039
:10290000E0B501211C20FDF7C1FE002202210320B9
:10291000FEF7C5FE002203210320FEF7C0FE4B4850
:102920000068042188434949086048480068082134
:102930008843464908600020029000200190002052
:1029400000900123012203210220FEF723FF03212F
:102950000220FFF7CCF80C2203210220FFF7B8F881
:10296000012202210220FFF7DEFE07BD00B5384834
:10297000006801000907C90F002966D035480068C2
:1029800001000907C90F00290CD030480068042154
:1029900088432E4908602D480068082188432B4948
:1029A00008604CE02C484078002809D1274800688E
:1029B000042188432549086000202849087010E058
:1029C00027480078002809D12048006804210143E5
:1029D0001E48016001202149087002E001201F49C2
:1029E00008701D480079002809D11848006808219E
:1029F00088431649086000201A49087010E01A48F8
:102A00000078002809D111480068082101430F48C7
:102A1000016001201349087002E00120114908708B
:102A20000020124908700020114908700020114947
:102A3000087011480068012101430F4801600F48E8
:102A40000068082188430D49086000BDC80D024098
:102A5000800E0240840D0240580100202C0000200E
:102A60002E0000202D0000202F00002091010020CA
:102A700092010020900100204C0C0040900E02407A
:102A800000B559480078401C5749087057480078ED
:102A9000012811D156480078401C55490870544807
:102AA000007854490978C0B2884205D1524800687C
:102AB000042101435048016050480078012811D199
:102AC0004F480078401C4E4908704D4800784D49E9
:102AD0000978C0B2884205D14748006808210143FF
:102AE0004548016040480078192820DB46480068C6
:102AF000012188434449086000203B4908700020B8
:102B00003A49087000203A49087000203B49087093
:102B100000203B4908703848006804218843364942
:102B2000086035480068082188433349086000BDC3
:102B300000B5364800680421884335490978890082
:102B400004221140014331480160324800684021AD
:102B500088432F49497889014022114001432D487B
:102B600001602C480068202188432949897849015F
:102B700020221140014327480160264800681021A7
:102B800088432349C9780901102211400143214893
:102B900001601F4840782049097888420ED01C48BF
:102BA0004078002803D00D201249087002E0192057
:102BB0001049087016484078174908701448007981
:102BC0001649097888420ED011480079002803D0B0
:102BD0000D200C49087002E019200A4908700C48C1
:102BE00000790E49087000BD900100202C000020E3
:102BF000910100202E000020C80D02402D00002071
:102C0000920100202F0000204C0C0040080D0240D3
:102C100058010020880D0240880100208901002011
:102C200010B562480078002800D1BEE05F48047803
:102C300000205E4908702000C0B2112847D0122839
:102C400031D013286FD0142800D1A4E0152837D034
:102C5000162800D1A3E021284ED023287AD024289A
:102C600000D199E0262800D19AE031284ED03228B0
:102C700020D0332800D184E0342800D18DE03628DC
:102C800000D18EE0412847D0422816D0432875D085
:102C9000812844D083287AD0842800D17EE08628F9
:102CA00000D17FE07FE04248407801214140404828
:102CB00041707AE000F010F977E000F0FEF874E07F
:102CC0003B48007901214140394801716DE0012004
:102CD0003749087036484078002803D1012034492C
:102CE000487008E033480078002804D03148007864
:102CF000401E3049087058E02E480078002804D063
:102D00002C480078401E2B4908704EE000202849CE
:102D1000087000F0E1F848E000F0CFF845E000204E
:102D20002349087041E001202149887020484078FB
:102D300000280ED01F480078401C1E4908701D480E
:102D40000078192805DB19201A4908700020184955
:102D500048702AE01648407800280ED015480078C0
:102D6000401C1449087013480078192805DB192005
:102D70001049087000200E49487016E000F09DF8D8
:102D800013E000200A49887000F0A6F80DE000204A
:102D90000749887009E008E007E006E005E004E084
:102DA00003E002E001E00020040010BD93010020D8
:102DB000580100202E00002080B54F4800780328DD
:102DC00009DA4E480068022101434C4801600020A6
:102DD0004B49088070E04A480088401C48490880F8
:102DE00045480078032810D14548008815282FDB76
:102DF00000204349088041480068022101433F48C0
:102E0000016000203C49087022E03B480078062819
:102E100010D13B480088152805DA0820364908708B
:102E2000FEF70DF802E00020334908700020344915
:102E300008800DE030480078082809D13048008823
:102E40003049884204DB09202B490870FDF7E9FF6F
:102E500029480078002807D003280FD0082814D06C
:102E6000092820D00A2827D1002025490880234896
:102E7000006802210143214801601DE01F480068ED
:102E8000022188431D49086016E01D48008804217E
:102E9000FEF77FFB002905D1184800680221414058
:102EA0001648016008E000201549088013480068B2
:102EB000022188431149086001BD00B50E48007821
:102EC000032808D00D480068022188430B49086098
:102ED00003200949087000BD00B5074800780328A1
:102EE00008DB05480078072804DA03480078401C0E
:102EF0000149087000BD000094010020080D024047
:102F000086010020B80B000000B549480068C007E2
:102F10000AD5484800680121884346490860464868
:102F20000088401C4449088000BD30B585B0434D41
:102F3000002401210820FDF7A9FB41480290002050
:102F40006946487000206946087103206946887008
:102F500000206946C8700020694608710120694652
:102F6000487169460020FFF763F80020FEF7FEFF76
:102F70000020FFF71FF8012203210E20FFF7D3FBEB
:102F8000290089B20020FFF78FF9210089B20020C3
:102F9000FFF7BEF90020FFF737F905B030BD80B567
:102FA00028480068C00707D5FFF76AFD2648006873
:102FB000012188432449086001BD30B585B0E22570
:102FC0002D02002401210820FDF760FB1F4804901A
:102FD0000020694648700020694608710020694653
:102FE000887000206946C870002069460871012079
:102FF0006946487169460220FFF71AF80220FEF779
:10300000B5FF0220FEF7D6FF012203211020FFF7B3
:103010008AFB290089B20220FFF746F9210089B214
:103020000220FFF775F90220FFF718F905B030BD4F
:10303000100C0040140C00408001002067C5000007
:10304000092F0000500C0040540C00409F2F00003E
:1030500080B52148214908602148204908600121A4
:103060001C20FDF713FB002202210020FEF717FBB6
:10307000002206210220FEF712FB00220521022079
:10308000FEF70DFB002204210220FEF708FB0022C0
:1030900001210020FEF703FB124800680421884349
:1030A0001049086010480068402188430E490860B4
:1030B0000D480068202188430B4908600A480068D1
:1030C000102188430849086006480068022101432E
:1030D0000448016001BD00005A5A00000820004069
:1030E000A5A50000080D0240880D024010B500F0B3
:1030F00043F8FEF772F8FDF766FFFFF7A9FFFFF749
:10310000FFFBFFF74BF9FFF710FFFFF756FF00F04B
:1031100061F8FFF70DFDFDF772FF200014490988E3
:1031200080B28842F5D01248008804001048008818
:103130000421FEF72EFA002907D100F067F8FFF707
:103140008CF90C490870FFF76BFD094800882821AD
:10315000FEF71FFA002901D1FFF72EFE0448008870
:103160006421FEF716FA0029D3D1FEF725F9D0E73E
:103170008001002093010020E0B501211820FDF717
:1031800085FA01211F20FDF781FA0620FDF7F4F8EA
:1031900001210020FDF718FA00206946087001207F
:1031A000694648700120694688706846FDF788F8CE
:1031B000FDF7F6FA082101A8FDF722FB012001A97D
:1031C00048700348029001A8FDF780FA07BD00BFD0
:1031D000FFFFFF00114800688021090201430F48EA
:1031E00001600F4800680F218843082101430C4803
:1031F00001600B48006820218843094908601E20AF
:1032000008490860E1200749086070471E20054909
:103210000860E1200349086070470000202000405A
:10322000840C0040800C004070B40123002413E0A3
:103230000168001D194202D04D466D1E49190C60EF
:10324000091D121F042AFAD20D00960701D50C8021
:10325000AD1C1A4000D02C700268001D002AE7D176
:1032600070BC704730B501684118446862088A181C
:103270008368E4070DD54C461B190AE00C7864B24C
:10328000491C0D78491C1D705B1C002C05D5641C65
:10329000F9D19142F2D10C3030BD641EF1D5F8E77E
:1032A00005480022874500D90244044802600448CA
:1032B00080470448004700000000002008ED00E0BF
:1032C000AD0700007533000010B507497944183187
:1032D000064C7C44163404E0081D0A6889188847A7
:1032E0000100A142F8D110BD080000002400000038
:1032F00039FFFFFF640100003400002000000000DF
:1033000065FFFFFFA8000000320000000000002061
:1033100000F00DF8002801D0FFF7D6FF00BF00BF76
:10332000002000BF00BFFFF7E1FE00F002F801201F
:10333000704780B500F002F801BD0000074638462E
:1033400000F002F8FBE7000080B500BF00BF024AB2
:1033500011001820ABBEFBE7260002001F1C1F1E39
:103360001F1E1F1F1E1F1E1F74696A356969346185
:103370000000000000BF00BF00BF00BFFFF7C8FF94
:103380000080000000960000010102020302040414
:103390007B2270223A220000222C2276223A22003E
:1033A000312E302E3000000004081018F9000040C3
:1033B000F4000001FC0002010040F30007093D0099
:0533C00001010D0D01EB
:04000005000033754F
:00000001FF
